{
  "_format": "hh-sol-artifact-1",
  "contractName": "CleanLedger",
  "sourceName": "contracts/CleanLedger.sol",
  "abi": [
    {
      "anonymous": false,
      "inputs": [
        {
          "indexed": false,
          "internalType": "string",
          "name": "id",
          "type": "string"
        },
        {
          "indexed": false,
          "internalType": "string",
          "name": "startupId",
          "type": "string"
        },
        {
          "indexed": false,
          "internalType": "address",
          "name": "investor",
          "type": "address"
        },
        {
          "indexed": false,
          "internalType": "uint256",
          "name": "amount",
          "type": "uint256"
        }
      ],
      "name": "InvestmentPlaced",
      "type": "event"
    },
    {
      "anonymous": false,
      "inputs": [
        {
          "indexed": false,
          "internalType": "string",
          "name": "startupId",
          "type": "string"
        },
        {
          "indexed": false,
          "internalType": "uint256",
          "name": "index",
          "type": "uint256"
        },
        {
          "indexed": false,
          "internalType": "string",
          "name": "status",
          "type": "string"
        }
      ],
      "name": "MilestoneUpdated",
      "type": "event"
    },
    {
      "anonymous": false,
      "inputs": [
        {
          "indexed": false,
          "internalType": "string",
          "name": "id",
          "type": "string"
        },
        {
          "indexed": false,
          "internalType": "string",
          "name": "name",
          "type": "string"
        },
        {
          "indexed": false,
          "internalType": "address",
          "name": "founder",
          "type": "address"
        }
      ],
      "name": "StartupCreated",
      "type": "event"
    },
    {
      "anonymous": false,
      "inputs": [
        {
          "indexed": false,
          "internalType": "string",
          "name": "startupId",
          "type": "string"
        },
        {
          "indexed": false,
          "internalType": "uint256",
          "name": "newScore",
          "type": "uint256"
        }
      ],
      "name": "TrustScoreUpdated",
      "type": "event"
    },
    {
      "inputs": [
        {
          "internalType": "string",
          "name": "_startupId",
          "type": "string"
        },
        {
          "internalType": "string",
          "name": "_title",
          "type": "string"
        },
        {
          "internalType": "string",
          "name": "_description",
          "type": "string"
        },
        {
          "internalType": "uint256",
          "name": "_tranchePct",
          "type": "uint256"
        }
      ],
      "name": "addMilestone",
      "outputs": [],
      "stateMutability": "nonpayable",
      "type": "function"
    },
    {
      "inputs": [
        {
          "internalType": "string",
          "name": "_id",
          "type": "string"
        },
        {
          "internalType": "string",
          "name": "_name",
          "type": "string"
        },
        {
          "internalType": "string",
          "name": "_sector",
          "type": "string"
        },
        {
          "internalType": "string",
          "name": "_geography",
          "type": "string"
        },
        {
          "internalType": "string",
          "name": "_description",
          "type": "string"
        },
        {
          "internalType": "uint256",
          "name": "_fundingTarget",
          "type": "uint256"
        },
        {
          "internalType": "uint256",
          "name": "_techPlanned",
          "type": "uint256"
        },
        {
          "internalType": "uint256",
          "name": "_marketingPlanned",
          "type": "uint256"
        },
        {
          "internalType": "uint256",
          "name": "_operationsPlanned",
          "type": "uint256"
        },
        {
          "internalType": "uint256",
          "name": "_legalPlanned",
          "type": "uint256"
        }
      ],
      "name": "createStartup",
      "outputs": [],
      "stateMutability": "nonpayable",
      "type": "function"
    },
    {
      "inputs": [
        {
          "internalType": "string",
          "name": "_startupId",
          "type": "string"
        }
      ],
      "name": "getInvestments",
      "outputs": [
        {
          "components": [
            {
              "internalType": "string",
              "name": "id",
              "type": "string"
            },
            {
              "internalType": "address",
              "name": "investor",
              "type": "address"
            },
            {
              "internalType": "string",
              "name": "startupId",
              "type": "string"
            },
            {
              "internalType": "uint256",
              "name": "amount",
              "type": "uint256"
            },
            {
              "internalType": "uint256",
              "name": "timestamp",
              "type": "uint256"
            },
            {
              "internalType": "string",
              "name": "trancheTag",
              "type": "string"
            },
            {
              "internalType": "string",
              "name": "trancheStatus",
              "type": "string"
            },
            {
              "internalType": "string",
              "name": "encryptedAmount",
              "type": "string"
            }
          ],
          "internalType": "struct CleanLedger.Investment[]",
          "name": "",
          "type": "tuple[]"
        }
      ],
      "stateMutability": "view",
      "type": "function"
    },
    {
      "inputs": [
        {
          "internalType": "string",
          "name": "_startupId",
          "type": "string"
        }
      ],
      "name": "getMilestones",
      "outputs": [
        {
          "components": [
            {
              "internalType": "string",
              "name": "title",
              "type": "string"
            },
            {
              "internalType": "string",
              "name": "description",
              "type": "string"
            },
            {
              "internalType": "uint256",
              "name": "tranchePct",
              "type": "uint256"
            },
            {
              "internalType": "string",
              "name": "status",
              "type": "string"
            },
            {
              "internalType": "string",
              "name": "proofUrl",
              "type": "string"
            },
            {
              "internalType": "uint256",
              "name": "voteDeadline",
              "type": "uint256"
            },
            {
              "internalType": "uint256",
              "name": "trustPenalty",
              "type": "uint256"
            },
            {
              "internalType": "bool",
              "name": "redFlagged",
              "type": "bool"
            }
          ],
          "internalType": "struct CleanLedger.Milestone[]",
          "name": "",
          "type": "tuple[]"
        }
      ],
      "stateMutability": "view",
      "type": "function"
    },
    {
      "inputs": [
        {
          "internalType": "string",
          "name": "_id",
          "type": "string"
        }
      ],
      "name": "getStartup",
      "outputs": [
        {
          "components": [
            {
              "internalType": "string",
              "name": "id",
              "type": "string"
            },
            {
              "internalType": "address",
              "name": "founder",
              "type": "address"
            },
            {
              "internalType": "string",
              "name": "name",
              "type": "string"
            },
            {
              "internalType": "string",
              "name": "sector",
              "type": "string"
            },
            {
              "internalType": "string",
              "name": "geography",
              "type": "string"
            },
            {
              "internalType": "string",
              "name": "description",
              "type": "string"
            },
            {
              "internalType": "uint256",
              "name": "fundingTarget",
              "type": "uint256"
            },
            {
              "internalType": "uint256",
              "name": "totalRaised",
              "type": "uint256"
            },
            {
              "internalType": "uint256",
              "name": "backers",
              "type": "uint256"
            },
            {
              "internalType": "uint256",
              "name": "trustScore",
              "type": "uint256"
            },
            {
              "internalType": "string",
              "name": "riskLevel",
              "type": "string"
            },
            {
              "internalType": "string",
              "name": "verificationStatus",
              "type": "string"
            },
            {
              "components": [
                {
                  "internalType": "uint256",
                  "name": "techPlanned",
                  "type": "uint256"
                },
                {
                  "internalType": "uint256",
                  "name": "marketingPlanned",
                  "type": "uint256"
                },
                {
                  "internalType": "uint256",
                  "name": "operationsPlanned",
                  "type": "uint256"
                },
                {
                  "internalType": "uint256",
                  "name": "legalPlanned",
                  "type": "uint256"
                },
                {
                  "internalType": "uint256",
                  "name": "techActual",
                  "type": "uint256"
                },
                {
                  "internalType": "uint256",
                  "name": "marketingActual",
                  "type": "uint256"
                },
                {
                  "internalType": "uint256",
                  "name": "operationsActual",
                  "type": "uint256"
                },
                {
                  "internalType": "uint256",
                  "name": "legalActual",
                  "type": "uint256"
                }
              ],
              "internalType": "struct CleanLedger.FundAllocation",
              "name": "allocation",
              "type": "tuple"
            },
            {
              "internalType": "bool",
              "name": "exists",
              "type": "bool"
            }
          ],
          "internalType": "struct CleanLedger.Startup",
          "name": "",
          "type": "tuple"
        }
      ],
      "stateMutability": "view",
      "type": "function"
    },
    {
      "inputs": [
        {
          "internalType": "string",
          "name": "_investmentId",
          "type": "string"
        },
        {
          "internalType": "string",
          "name": "_startupId",
          "type": "string"
        },
        {
          "internalType": "uint256",
          "name": "_amount",
          "type": "uint256"
        },
        {
          "internalType": "string",
          "name": "_trancheTag",
          "type": "string"
        },
        {
          "internalType": "string",
          "name": "_encryptedAmount",
          "type": "string"
        }
      ],
      "name": "invest",
      "outputs": [],
      "stateMutability": "payable",
      "type": "function"
    },
    {
      "inputs": [
        {
          "internalType": "uint256",
          "name": "",
          "type": "uint256"
        }
      ],
      "name": "startupIds",
      "outputs": [
        {
          "internalType": "string",
          "name": "",
          "type": "string"
        }
      ],
      "stateMutability": "view",
      "type": "function"
    },
    {
      "inputs": [
        {
          "internalType": "string",
          "name": "",
          "type": "string"
        },
        {
          "internalType": "uint256",
          "name": "",
          "type": "uint256"
        }
      ],
      "name": "startupInvestments",
      "outputs": [
        {
          "internalType": "string",
          "name": "id",
          "type": "string"
        },
        {
          "internalType": "address",
          "name": "investor",
          "type": "address"
        },
        {
          "internalType": "string",
          "name": "startupId",
          "type": "string"
        },
        {
          "internalType": "uint256",
          "name": "amount",
          "type": "uint256"
        },
        {
          "internalType": "uint256",
          "name": "timestamp",
          "type": "uint256"
        },
        {
          "internalType": "string",
          "name": "trancheTag",
          "type": "string"
        },
        {
          "internalType": "string",
          "name": "trancheStatus",
          "type": "string"
        },
        {
          "internalType": "string",
          "name": "encryptedAmount",
          "type": "string"
        }
      ],
      "stateMutability": "view",
      "type": "function"
    },
    {
      "inputs": [
        {
          "internalType": "string",
          "name": "",
          "type": "string"
        },
        {
          "internalType": "uint256",
          "name": "",
          "type": "uint256"
        }
      ],
      "name": "startupMilestones",
      "outputs": [
        {
          "internalType": "string",
          "name": "title",
          "type": "string"
        },
        {
          "internalType": "string",
          "name": "description",
          "type": "string"
        },
        {
          "internalType": "uint256",
          "name": "tranchePct",
          "type": "uint256"
        },
        {
          "internalType": "string",
          "name": "status",
          "type": "string"
        },
        {
          "internalType": "string",
          "name": "proofUrl",
          "type": "string"
        },
        {
          "internalType": "uint256",
          "name": "voteDeadline",
          "type": "uint256"
        },
        {
          "internalType": "uint256",
          "name": "trustPenalty",
          "type": "uint256"
        },
        {
          "internalType": "bool",
          "name": "redFlagged",
          "type": "bool"
        }
      ],
      "stateMutability": "view",
      "type": "function"
    },
    {
      "inputs": [
        {
          "internalType": "string",
          "name": "",
          "type": "string"
        }
      ],
      "name": "startups",
      "outputs": [
        {
          "internalType": "string",
          "name": "id",
          "type": "string"
        },
        {
          "internalType": "address",
          "name": "founder",
          "type": "address"
        },
        {
          "internalType": "string",
          "name": "name",
          "type": "string"
        },
        {
          "internalType": "string",
          "name": "sector",
          "type": "string"
        },
        {
          "internalType": "string",
          "name": "geography",
          "type": "string"
        },
        {
          "internalType": "string",
          "name": "description",
          "type": "string"
        },
        {
          "internalType": "uint256",
          "name": "fundingTarget",
          "type": "uint256"
        },
        {
          "internalType": "uint256",
          "name": "totalRaised",
          "type": "uint256"
        },
        {
          "internalType": "uint256",
          "name": "backers",
          "type": "uint256"
        },
        {
          "internalType": "uint256",
          "name": "trustScore",
          "type": "uint256"
        },
        {
          "internalType": "string",
          "name": "riskLevel",
          "type": "string"
        },
        {
          "internalType": "string",
          "name": "verificationStatus",
          "type": "string"
        },
        {
          "components": [
            {
              "internalType": "uint256",
              "name": "techPlanned",
              "type": "uint256"
            },
            {
              "internalType": "uint256",
              "name": "marketingPlanned",
              "type": "uint256"
            },
            {
              "internalType": "uint256",
              "name": "operationsPlanned",
              "type": "uint256"
            },
            {
              "internalType": "uint256",
              "name": "legalPlanned",
              "type": "uint256"
            },
            {
              "internalType": "uint256",
              "name": "techActual",
              "type": "uint256"
            },
            {
              "internalType": "uint256",
              "name": "marketingActual",
              "type": "uint256"
            },
            {
              "internalType": "uint256",
              "name": "operationsActual",
              "type": "uint256"
            },
            {
              "internalType": "uint256",
              "name": "legalActual",
              "type": "uint256"
            }
          ],
          "internalType": "struct CleanLedger.FundAllocation",
          "name": "allocation",
          "type": "tuple"
        },
        {
          "internalType": "bool",
          "name": "exists",
          "type": "bool"
        }
      ],
      "stateMutability": "view",
      "type": "function"
    },
    {
      "inputs": [
        {
          "internalType": "string",
          "name": "_startupId",
          "type": "string"
        },
        {
          "internalType": "uint256",
          "name": "_newScore",
          "type": "uint256"
        },
        {
          "internalType": "string",
          "name": "_riskLevel",
          "type": "string"
        }
      ],
      "name": "updateTrustScore",
      "outputs": [],
      "stateMutability": "nonpayable",
      "type": "function"
    }
  ],
  "bytecode": "0x60808060405234610016576119d2908161001c8239f35b600080fdfe6080604052600436101561001257600080fd5b60003560e01c80630b1b74ed14611305578063125ce42614610f3c5780632097230114610c4c5780633614ca57146109bc5780635d04acde1461078457806373851251146106a3578063b218a9bf1461059c578063b49b693a1461048e578063c75d719114610429578063f4b994d6146102345763f86025c31461009557600080fd5b3461022f57602036600319011261022f576004356001600160401b03811161022f576100c5903690600401611579565b60405181818093516020819301916100dc926115cf565b8101600081520360200190206100f1816116ff565b60018201546001600160a01b03169161010c600282016116ff565b610118600383016116ff565b610124600484016116ff565b610130600585016116ff565b6006850154906007860154600887015490600988015492600a8901610154906116ff565b95610161600b8b016116ff565b9761016e600c8c016117dc565b9a6014015460ff1699604051809e819e6102a0808452830161018f916115f2565b91602001528d80820390604001526101a6916115f2565b8c810360608e01526101b7916115f2565b8b810360808d01526101c8916115f2565b8a810360a08c01526101d9916115f2565b9360c08a015260e0890152610100880152610120870152858103610140870152610202916115f2565b848103610160860152610214916115f2565b91610180840161022391611617565b15156102808301520390f35b600080fd5b3461022f5760208060031936011261022f576004356001600160401b03811161022f57610265903690600401611579565b908061027a60405193848151938492016115cf565b82019181816001948581520301902080549161029583611985565b926102a36040519485611558565b8084528184018093600052826000206000915b83831061039857505050506040519384938285019083865251809152604085019260408260051b87010194936000905b8382106102f35787870388f35b918496819592949698508190603f198b820301855289519060e08061036a61035761033a61032a87516101008089528801906115f2565b888801518782038a8901526115f2565b6040870151604087015260608088015190878303908801526115f2565b60808087015190868303908701526115f2565b9360a0808201519085015260c0808201519085015201511515910152980192019201879695939194926102e6565b9660088582979896996040516103ad81611505565b6103b6866116ff565b81526103c38587016116ff565b83820152600286015460408201526103dd600387016116ff565b60608201526103ee600487016116ff565b6080820152600586015460a0820152600686015460c082015260ff600787015416151560e082015281520192019201919096939594966102b6565b3461022f57602036600319011261022f5760043560035481101561022f57610450906117a5565b61047857610460610474916116ff565b6040519182916020835260208301906115f2565b0390f35b634e487b7160e01b600052600060045260246000fd5b3461022f57606036600319011261022f576001600160401b0360043581811161022f576104bf903690600401611579565b906024359160443591821161022f577fb43428490af27a1462be03e9f1584d951d01e99e832b8cbd206223c137d4ae749261057d610504610591943690600401611579565b600a61056d60208661053b60ff6014604051858181875197019661052981838a6115cf565b81016000815203019020015416611945565b86600960405184818c516105508183896115cf565b810160008152030190200155604051809381928a519283916115cf565b8101600081520301902001611836565b6040519283926040845260408401906115f2565b9060208301520390a1005b3461022f5760206105c46105af36611662565b929081604051938285809451938492016115cf565b81016002815203019020805482101561022f5761065c916105e491611693565b506104746105f1826116ff565b9161069560018060a01b0360018301541691610687610612600283016116ff565b93600383015490600484015461066f61062d600587016116ff565b92610646600761063f60068a016116ff565b98016116ff565b986040519c8d9c8d6101009081815201906115f2565b9160208d01528b820360408d01526115f2565b9260608a0152608089015287820360a08901526115f2565b9085820360c08701526115f2565b9083820360e08501526115f2565b3461022f5760206106b66105af36611662565b81016001815203019020805482101561022f5761073f916106d691611693565b506106e0816116ff565b906106ed600182016116ff565b60028201549161076e610702600383016116ff565b93610760610712600485016116ff565b9160058501549661074d60ff6007600689015498015416976040519b8c9b8c6101008091528d01906115f2565b908b820360208d01526115f2565b9160408a015288820360608a01526115f2565b9086820360808801526115f2565b9260a085015260c0840152151560e08301520390f35b3461022f57608036600319011261022f576001600160401b0360043581811161022f576107b5903690600401611579565b60243582811161022f576107cd903690600401611579565b60443583811161022f576107e5903690600401611579565b916040519080519061080860ff601460209586818187019761052981838b6115cf565b6040516001825161081a8184876115cf565b820191600083528581838060a01b03940301902001541633036109775761084e9183916040519384928392519283916115cf565b81016001815203019020906040519261086684611505565b835280830193845260408301926064358452604051956108858761153d565b600787526670656e64696e6760c81b83880152606082019687526040519283019081118382101761096157604052600082526080810191825260a08101906000825260c08101926000845260e0820194600086528054600160401b811015610961576108f691600182018155611693565b9790976104785761095f986007976109236109339361091961093d97518d611836565b5160018c01611836565b5160028a01555160038901611836565b5160048701611836565b51600585015551600684015551151591019060ff801983541691151516179055565b005b634e487b7160e01b600052604160045260246000fd5b60405162461bcd60e51b815260048101849052601f60248201527f4f6e6c7920666f756e6465722063616e20616464206d696c6573746f6e6573006044820152606490fd5b60a036600319011261022f576001600160401b0360043581811161022f576109e8903690600401611579565b9060243581811161022f57610a01903690600401611579565b9160443560643583811161022f57610a1d903690600401611579565b9260843590811161022f57610a36903690600401611579565b6040518551610a5660ff60146020948581818d019661052981838a6115cf565b600760405183818a51610a6a8183886115cf565b8101600081520301902001805490858201809211610c365755600860405183818a51610a978183886115cf565b810160008152030190200180549160018301809311610c3657610ac892849255604051809381928b519283916115cf565b810160028152030190209560405192610ae084611505565b8584528284019733895260408501948386526060810192878452608082019642885260a083019a8b5260405193610b168561153d565b601585527450686173652031202d20496e2050726f677265737360581b8886015260c0840194855260e084019283528054600160401b81101561096157610b6291600182018155611693565b94909461047857610bf2610c189c610c259a7f96fff59018f7e61825e5d701c8f3cb89698d39dcde398c54e47e8c14b28599ca9f98610bdc610bfc96610c049b610baf60079b518d611836565b5160018c0180546001600160a01b0319166001600160a01b03929092169190911790555160028b01611836565b5160038901555160048801555160058701611836565b5160068501611836565b519101611836565b6040519586956080875260808701906115f2565b91858303908601526115f2565b9033604084015260608301520390a1005b634e487b7160e01b600052601160045260246000fd5b3461022f57602036600319011261022f576004356001600160401b03811161022f576020610c81610d33923690600401611579565b60006101a0604051610c9281611521565b6060815282858201526060604082015260608082015260606080820152606060a08201528260c08201528260e0820152826101008201528261012082015260606101408201526060610160820152604051610cec81611505565b83815283868201528360408201528360608201528360808201528360a08201528360c08201528360e0820152610180820152015281604051938285809451938492016115cf565b8101600081520301902060ff601460405192610d4e84611521565b610d57816116ff565b845260018101546001600160a01b03166020850152610d78600282016116ff565b6040850152610d89600382016116ff565b6060850152610d9a600482016116ff565b6080850152610dab600582016116ff565b60a0850152600681015460c0850152600781015460e085015260088101546101008501526009810154610120850152610de6600a82016116ff565b610140850152610df8600b82016116ff565b610160850152610e0a600c82016117dc565b61018085015201541615156101a08201526040518091602082526101a0610f1b610f03610ebe610ea8610e92610e7c610e5188516102a060208c01526102c08b01906115f2565b60208901516001600160a01b031660408b8101919091528901518a8203601f190160608c01526115f2565b6060880151898203601f190160808b01526115f2565b6080870151888203601f190160a08a01526115f2565b60a0860151878203601f190160c08901526115f2565b60c085015160e087015260e0850151610100870152610100850151610120870152610120850151610140870152610140850151601f19878303016101608801526115f2565b610160840151858203601f19016101808701526115f2565b91610f2e61018082015183860190611617565b015115156102a08301520390f35b3461022f5761014036600319011261022f576001600160401b0360043581811161022f57610f6e903690600401611579565b9060243581811161022f57610f87903690600401611579565b9060443581811161022f57610fa0903690600401611579565b60643582811161022f57610fb8903690600401611579565b9160843590811161022f57610fd1903690600401611579565b9160ff601460405160208181610fed8b838151938492016115cf565b810160008152030190200154166112c757611242926040519161100f83611505565b60c435835260e435602084015261010435604084015261012435606084015260006080840152600060a0840152600060c0840152600060e08401526040519361105785611521565b8785523360208601528660408601526060850152608084015260a083015260a43560c0830152600060e0830152600061010083015260326101208301526040516110a08161153d565b60068152654d454449554d60d01b60208201526101408301526040516110c58161153d565b600a8152691d5b9d995c9a599a595960b21b602082015261016083015261018082015260016101a082015260146101a0604051602081885161110a8183858d016115cf565b8101600081520301902092611120815185611836565b6001840160018060a01b036020830151166bffffffffffffffffffffffff60a01b825416179055611158604082015160028601611836565b611169606082015160038601611836565b61117a608082015160048601611836565b61118b60a082015160058601611836565b60c0810151600685015560e08101516007850155610100810151600885015561012081015160098501556111c7610140820151600a8601611836565b6111d9610160820151600b8601611836565b60e06101808201518051600c8701556020810151600d8701556040810151600e8701556060810151600f8701556080810151601087015560a0810151601187015560c08101516012870155015160138501550151151591019060ff801983541691151516179055565b600354600160401b8110156109615780600161126192016003556117a5565b929092610478576112bc6112ae9261129a837facfdbfadb5efacee63d45b33a482a91a6ba525814efe023d86c68e2eaf0a161f96611836565b6040519384936060855260608501906115f2565b9083820360208501526115f2565b3360408301520390a1005b60405162461bcd60e51b81526020600482015260166024820152755374617274757020616c72656164792065786973747360501b6044820152606490fd5b3461022f5760208060031936011261022f576004356001600160401b03811161022f57611336903690600401611579565b908061134b60405193848151938492016115cf565b820191818160029485815203019020805461136581611985565b936113736040519586611558565b81855260009283528383208486019391845b84841061146e57604080518881528951818a01819052600092600582901b83018101918a918c9085015b8287106113bc5785850386f35b90919293828061145e600193603f198a820301865288519060e061144d61143a6114136113f286516101008088528701906115f2565b8a8060a01b03898801511689870152604087015186820360408801526115f2565b606080870151908601526080808701519086015260a08087015190868303908701526115f2565b60c08086015190858303908601526115f2565b9201519060e08184039101526115f2565b96019201960195929190926113af565b60088760019260409a999a5161148381611505565b61148c876116ff565b8152848060a01b038588015416838201526114a88688016116ff565b604082015260038701546060820152600487015460808201526114cd600588016116ff565b60a08201526114de600688016116ff565b60c08201526114ef600788016116ff565b60e0820152815201930193019291969596611385565b61010081019081106001600160401b0382111761096157604052565b6101c081019081106001600160401b0382111761096157604052565b604081019081106001600160401b0382111761096157604052565b90601f801991011681019081106001600160401b0382111761096157604052565b81601f8201121561022f578035906001600160401b03821161096157604051926115ad601f8401601f191660200185611558565b8284526020838301011161022f57816000926020809301838601378301015290565b60005b8381106115e25750506000910152565b81810151838201526020016115d2565b9060209161160b815180928185528580860191016115cf565b601f01601f1916010190565b60e08091805184526020810151602085015260408101516040850152606081015160608501526080810151608085015260a081015160a085015260c081015160c08501520151910152565b604060031982011261022f57600435906001600160401b03821161022f5761168c91600401611579565b9060243590565b80548210156116af5760005260206000209060031b0190600090565b634e487b7160e01b600052603260045260246000fd5b90600182811c921680156116f5575b60208310146116df57565b634e487b7160e01b600052602260045260246000fd5b91607f16916116d4565b9060405191826000825492611713846116c5565b908184526001948581169081600014611782575060011461173f575b505061173d92500383611558565b565b9093915060005260209081600020936000915b81831061176a57505061173d9350820101388061172f565b85548884018501529485019487945091830191611752565b91505061173d94506020925060ff191682840152151560051b820101388061172f565b6003548110156116af5760036000527fc2575a0e9e593c00f959f8c92f12db2869c3395a3b0502d05e2516446f71f85b0190600090565b906040516117e981611505565b60e0600782948054845260018101546020850152600281015460408501526003810154606085015260048101546080850152600581015460a0850152600681015460c08501520154910152565b91909182516001600160401b0381116109615761185382546116c5565b601f81116118fd575b50602080601f831160011461189957508192939460009261188e575b50508160011b916000199060031b1c1916179055565b015190503880611878565b90601f198316958460005282600020926000905b8882106118e5575050836001959697106118cc575b505050811b019055565b015160001960f88460031b161c191690553880806118c2565b806001859682949686015181550195019301906118ad565b600083815260208120601f840160051c8101926020851061193b575b601f0160051c01915b82811061193057505061185c565b818155600101611922565b9092508290611919565b1561194c57565b60405162461bcd60e51b815260206004820152601160248201527014dd185c9d1d5c081b9bdd08199bdd5b99607a1b6044820152606490fd5b6001600160401b0381116109615760051b6020019056fea2646970667358221220c6f040c17ab3a4dfb3ddddd3d08cf79919920dbb5f54c1eabe41073d794bc5d364736f6c63430008140033",
  "linkReferences": {},
  "deployedLinkReferences": {}
}