{"contracts/CleanLedger.sol":{"CleanLedger":{"abi":[{"anonymous":false,"inputs":[{"indexed":false,"internalType":"string","name":"id","type":"string"},{"indexed":false,"internalType":"string","name":"startupId","type":"string"},{"indexed":false,"internalType":"address","name":"investor","type":"address"},{"indexed":false,"internalType":"uint256","name":"amount","type":"uint256"}],"name":"InvestmentPlaced","type":"event"},{"anonymous":false,"inputs":[{"indexed":false,"internalType":"string","name":"startupId","type":"string"},{"indexed":false,"internalType":"uint256","name":"index","type":"uint256"},{"indexed":false,"internalType":"string","name":"status","type":"string"}],"name":"MilestoneUpdated","type":"event"},{"anonymous":false,"inputs":[{"indexed":false,"internalType":"string","name":"id","type":"string"},{"indexed":false,"internalType":"string","name":"name","type":"string"},{"indexed":false,"internalType":"address","name":"founder","type":"address"}],"name":"StartupCreated","type":"event"},{"anonymous":false,"inputs":[{"indexed":false,"internalType":"string","name":"startupId","type":"string"},{"indexed":false,"internalType":"uint256","name":"newScore","type":"uint256"}],"name":"TrustScoreUpdated","type":"event"},{"inputs":[{"internalType":"string","name":"_startupId","type":"string"},{"internalType":"string","name":"_title","type":"string"},{"internalType":"string","name":"_description","type":"string"},{"internalType":"uint256","name":"_tranchePct","type":"uint256"}],"name":"addMilestone","outputs":[],"stateMutability":"nonpayable","type":"function"},{"inputs":[{"internalType":"string","name":"_id","type":"string"},{"internalType":"string","name":"_name","type":"string"},{"internalType":"string","name":"_sector","type":"string"},{"internalType":"string","name":"_geography","type":"string"},{"internalType":"string","name":"_description","type":"string"},{"internalType":"uint256","name":"_fundingTarget","type":"uint256"},{"internalType":"uint256","name":"_techPlanned","type":"uint256"},{"internalType":"uint256","name":"_marketingPlanned","type":"uint256"},{"internalType":"uint256","name":"_operationsPlanned","type":"uint256"},{"internalType":"uint256","name":"_legalPlanned","type":"uint256"}],"name":"createStartup","outputs":[],"stateMutability":"nonpayable","type":"function"},{"inputs":[{"internalType":"string","name":"_startupId","type":"string"}],"name":"getInvestments","outputs":[{"components":[{"internalType":"string","name":"id","type":"string"},{"internalType":"address","name":"investor","type":"address"},{"internalType":"string","name":"startupId","type":"string"},{"internalType":"uint256","name":"amount","type":"uint256"},{"internalType":"uint256","name":"timestamp","type":"uint256"},{"internalType":"string","name":"trancheTag","type":"string"},{"internalType":"string","name":"trancheStatus","type":"string"},{"internalType":"string","name":"encryptedAmount","type":"string"}],"internalType":"struct CleanLedger.Investment[]","name":"","type":"tuple[]"}],"stateMutability":"view","type":"function"},{"inputs":[{"internalType":"string","name":"_startupId","type":"string"}],"name":"getMilestones","outputs":[{"components":[{"internalType":"string","name":"title","type":"string"},{"internalType":"string","name":"description","type":"string"},{"internalType":"uint256","name":"tranchePct","type":"uint256"},{"internalType":"string","name":"status","type":"string"},{"internalType":"string","name":"proofUrl","type":"string"},{"internalType":"uint256","name":"voteDeadline","type":"uint256"},{"internalType":"uint256","name":"trustPenalty","type":"uint256"},{"internalType":"bool","name":"redFlagged","type":"bool"}],"internalType":"struct CleanLedger.Milestone[]","name":"","type":"tuple[]"}],"stateMutability":"view","type":"function"},{"inputs":[{"internalType":"string","name":"_id","type":"string"}],"name":"getStartup","outputs":[{"components":[{"internalType":"string","name":"id","type":"string"},{"internalType":"address","name":"founder","type":"address"},{"internalType":"string","name":"name","type":"string"},{"internalType":"string","name":"sector","type":"string"},{"internalType":"string","name":"geography","type":"string"},{"internalType":"string","name":"description","type":"string"},{"internalType":"uint256","name":"fundingTarget","type":"uint256"},{"internalType":"uint256","name":"totalRaised","type":"uint256"},{"internalType":"uint256","name":"backers","type":"uint256"},{"internalType":"uint256","name":"trustScore","type":"uint256"},{"internalType":"string","name":"riskLevel","type":"string"},{"internalType":"string","name":"verificationStatus","type":"string"},{"components":[{"internalType":"uint256","name":"techPlanned","type":"uint256"},{"internalType":"uint256","name":"marketingPlanned","type":"uint256"},{"internalType":"uint256","name":"operationsPlanned","type":"uint256"},{"internalType":"uint256","name":"legalPlanned","type":"uint256"},{"internalType":"uint256","name":"techActual","type":"uint256"},{"internalType":"uint256","name":"marketingActual","type":"uint256"},{"internalType":"uint256","name":"operationsActual","type":"uint256"},{"internalType":"uint256","name":"legalActual","type":"uint256"}],"internalType":"struct CleanLedger.FundAllocation","name":"allocation","type":"tuple"},{"internalType":"bool","name":"exists","type":"bool"}],"internalType":"struct CleanLedger.Startup","name":"","type":"tuple"}],"stateMutability":"view","type":"function"},{"inputs":[{"internalType":"string","name":"_investmentId","type":"string"},{"internalType":"string","name":"_startupId","type":"string"},{"internalType":"uint256","name":"_amount","type":"uint256"},{"internalType":"string","name":"_trancheTag","type":"string"},{"internalType":"string","name":"_encryptedAmount","type":"string"}],"name":"invest","outputs":[],"stateMutability":"payable","type":"function"},{"inputs":[{"internalType":"uint256","name":"","type":"uint256"}],"name":"startupIds","outputs":[{"internalType":"string","name":"","type":"string"}],"stateMutability":"view","type":"function"},{"inputs":[{"internalType":"string","name":"","type":"string"},{"internalType":"uint256","name":"","type":"uint256"}],"name":"startupInvestments","outputs":[{"internalType":"string","name":"id","type":"string"},{"internalType":"address","name":"investor","type":"address"},{"internalType":"string","name":"startupId","type":"string"},{"internalType":"uint256","name":"amount","type":"uint256"},{"internalType":"uint256","name":"timestamp","type":"uint256"},{"internalType":"string","name":"trancheTag","type":"string"},{"internalType":"string","name":"trancheStatus","type":"string"},{"internalType":"string","name":"encryptedAmount","type":"string"}],"stateMutability":"view","type":"function"},{"inputs":[{"internalType":"string","name":"","type":"string"},{"internalType":"uint256","name":"","type":"uint256"}],"name":"startupMilestones","outputs":[{"internalType":"string","name":"title","type":"string"},{"internalType":"string","name":"description","type":"string"},{"internalType":"uint256","name":"tranchePct","type":"uint256"},{"internalType":"string","name":"status","type":"string"},{"internalType":"string","name":"proofUrl","type":"string"},{"internalType":"uint256","name":"voteDeadline","type":"uint256"},{"internalType":"uint256","name":"trustPenalty","type":"uint256"},{"internalType":"bool","name":"redFlagged","type":"bool"}],"stateMutability":"view","type":"function"},{"inputs":[{"internalType":"string","name":"","type":"string"}],"name":"startups","outputs":[{"internalType":"string","name":"id","type":"string"},{"internalType":"address","name":"founder","type":"address"},{"internalType":"string","name":"name","type":"string"},{"internalType":"string","name":"sector","type":"string"},{"internalType":"string","name":"geography","type":"string"},{"internalType":"string","name":"description","type":"string"},{"internalType":"uint256","name":"fundingTarget","type":"uint256"},{"internalType":"uint256","name":"totalRaised","type":"uint256"},{"internalType":"uint256","name":"backers","type":"uint256"},{"internalType":"uint256","name":"trustScore","type":"uint256"},{"internalType":"string","name":"riskLevel","type":"string"},{"internalType":"string","name":"verificationStatus","type":"string"},{"components":[{"internalType":"uint256","name":"techPlanned","type":"uint256"},{"internalType":"uint256","name":"marketingPlanned","type":"uint256"},{"internalType":"uint256","name":"operationsPlanned","type":"uint256"},{"internalType":"uint256","name":"legalPlanned","type":"uint256"},{"internalType":"uint256","name":"techActual","type":"uint256"},{"internalType":"uint256","name":"marketingActual","type":"uint256"},{"internalType":"uint256","name":"operationsActual","type":"uint256"},{"internalType":"uint256","name":"legalActual","type":"uint256"}],"internalType":"struct CleanLedger.FundAllocation","name":"allocation","type":"tuple"},{"internalType":"bool","name":"exists","type":"bool"}],"stateMutability":"view","type":"function"},{"inputs":[{"internalType":"string","name":"_startupId","type":"string"},{"internalType":"uint256","name":"_newScore","type":"uint256"},{"internalType":"string","name":"_riskLevel","type":"string"}],"name":"updateTrustScore","outputs":[],"stateMutability":"nonpayable","type":"function"}],"evm":{"bytecode":{"linkReferences":{},"object":"60808060405234610016576119d2908161001c8239f35b600080fdfe6080604052600436101561001257600080fd5b60003560e01c80630b1b74ed14611305578063125ce42614610f3c5780632097230114610c4c5780633614ca57146109bc5780635d04acde1461078457806373851251146106a3578063b218a9bf1461059c578063b49b693a1461048e578063c75d719114610429578063f4b994d6146102345763f86025c31461009557600080fd5b3461022f57602036600319011261022f576004356001600160401b03811161022f576100c5903690600401611579565b60405181818093516020819301916100dc926115cf565b8101600081520360200190206100f1816116ff565b60018201546001600160a01b03169161010c600282016116ff565b610118600383016116ff565b610124600484016116ff565b610130600585016116ff565b6006850154906007860154600887015490600988015492600a8901610154906116ff565b95610161600b8b016116ff565b9761016e600c8c016117dc565b9a6014015460ff1699604051809e819e6102a0808452830161018f916115f2565b91602001528d80820390604001526101a6916115f2565b8c810360608e01526101b7916115f2565b8b810360808d01526101c8916115f2565b8a810360a08c01526101d9916115f2565b9360c08a015260e0890152610100880152610120870152858103610140870152610202916115f2565b848103610160860152610214916115f2565b91610180840161022391611617565b15156102808301520390f35b600080fd5b3461022f5760208060031936011261022f576004356001600160401b03811161022f57610265903690600401611579565b908061027a60405193848151938492016115cf565b82019181816001948581520301902080549161029583611985565b926102a36040519485611558565b8084528184018093600052826000206000915b83831061039857505050506040519384938285019083865251809152604085019260408260051b87010194936000905b8382106102f35787870388f35b918496819592949698508190603f198b820301855289519060e08061036a61035761033a61032a87516101008089528801906115f2565b888801518782038a8901526115f2565b6040870151604087015260608088015190878303908801526115f2565b60808087015190868303908701526115f2565b9360a0808201519085015260c0808201519085015201511515910152980192019201879695939194926102e6565b9660088582979896996040516103ad81611505565b6103b6866116ff565b81526103c38587016116ff565b83820152600286015460408201526103dd600387016116ff565b60608201526103ee600487016116ff565b6080820152600586015460a0820152600686015460c082015260ff600787015416151560e082015281520192019201919096939594966102b6565b3461022f57602036600319011261022f5760043560035481101561022f57610450906117a5565b61047857610460610474916116ff565b6040519182916020835260208301906115f2565b0390f35b634e487b7160e01b600052600060045260246000fd5b3461022f57606036600319011261022f576001600160401b0360043581811161022f576104bf903690600401611579565b906024359160443591821161022f577fb43428490af27a1462be03e9f1584d951d01e99e832b8cbd206223c137d4ae749261057d610504610591943690600401611579565b600a61056d60208661053b60ff6014604051858181875197019661052981838a6115cf565b81016000815203019020015416611945565b86600960405184818c516105508183896115cf565b810160008152030190200155604051809381928a519283916115cf565b8101600081520301902001611836565b6040519283926040845260408401906115f2565b9060208301520390a1005b3461022f5760206105c46105af36611662565b929081604051938285809451938492016115cf565b81016002815203019020805482101561022f5761065c916105e491611693565b506104746105f1826116ff565b9161069560018060a01b0360018301541691610687610612600283016116ff565b93600383015490600484015461066f61062d600587016116ff565b92610646600761063f60068a016116ff565b98016116ff565b986040519c8d9c8d6101009081815201906115f2565b9160208d01528b820360408d01526115f2565b9260608a0152608089015287820360a08901526115f2565b9085820360c08701526115f2565b9083820360e08501526115f2565b3461022f5760206106b66105af36611662565b81016001815203019020805482101561022f5761073f916106d691611693565b506106e0816116ff565b906106ed600182016116ff565b60028201549161076e610702600383016116ff565b93610760610712600485016116ff565b9160058501549661074d60ff6007600689015498015416976040519b8c9b8c6101008091528d01906115f2565b908b820360208d01526115f2565b9160408a015288820360608a01526115f2565b9086820360808801526115f2565b9260a085015260c0840152151560e08301520390f35b3461022f57608036600319011261022f576001600160401b0360043581811161022f576107b5903690600401611579565b60243582811161022f576107cd903690600401611579565b60443583811161022f576107e5903690600401611579565b916040519080519061080860ff601460209586818187019761052981838b6115cf565b6040516001825161081a8184876115cf565b820191600083528581838060a01b03940301902001541633036109775761084e9183916040519384928392519283916115cf565b81016001815203019020906040519261086684611505565b835280830193845260408301926064358452604051956108858761153d565b600787526670656e64696e6760c81b83880152606082019687526040519283019081118382101761096157604052600082526080810191825260a08101906000825260c08101926000845260e0820194600086528054600160401b811015610961576108f691600182018155611693565b9790976104785761095f986007976109236109339361091961093d97518d611836565b5160018c01611836565b5160028a01555160038901611836565b5160048701611836565b51600585015551600684015551151591019060ff801983541691151516179055565b005b634e487b7160e01b600052604160045260246000fd5b60405162461bcd60e51b815260048101849052601f60248201527f4f6e6c7920666f756e6465722063616e20616464206d696c6573746f6e6573006044820152606490fd5b60a036600319011261022f576001600160401b0360043581811161022f576109e8903690600401611579565b9060243581811161022f57610a01903690600401611579565b9160443560643583811161022f57610a1d903690600401611579565b9260843590811161022f57610a36903690600401611579565b6040518551610a5660ff60146020948581818d019661052981838a6115cf565b600760405183818a51610a6a8183886115cf565b8101600081520301902001805490858201809211610c365755600860405183818a51610a978183886115cf565b810160008152030190200180549160018301809311610c3657610ac892849255604051809381928b519283916115cf565b810160028152030190209560405192610ae084611505565b8584528284019733895260408501948386526060810192878452608082019642885260a083019a8b5260405193610b168561153d565b601585527450686173652031202d20496e2050726f677265737360581b8886015260c0840194855260e084019283528054600160401b81101561096157610b6291600182018155611693565b94909461047857610bf2610c189c610c259a7f96fff59018f7e61825e5d701c8f3cb89698d39dcde398c54e47e8c14b28599ca9f98610bdc610bfc96610c049b610baf60079b518d611836565b5160018c0180546001600160a01b0319166001600160a01b03929092169190911790555160028b01611836565b5160038901555160048801555160058701611836565b5160068501611836565b519101611836565b6040519586956080875260808701906115f2565b91858303908601526115f2565b9033604084015260608301520390a1005b634e487b7160e01b600052601160045260246000fd5b3461022f57602036600319011261022f576004356001600160401b03811161022f576020610c81610d33923690600401611579565b60006101a0604051610c9281611521565b6060815282858201526060604082015260608082015260606080820152606060a08201528260c08201528260e0820152826101008201528261012082015260606101408201526060610160820152604051610cec81611505565b83815283868201528360408201528360608201528360808201528360a08201528360c08201528360e0820152610180820152015281604051938285809451938492016115cf565b8101600081520301902060ff601460405192610d4e84611521565b610d57816116ff565b845260018101546001600160a01b03166020850152610d78600282016116ff565b6040850152610d89600382016116ff565b6060850152610d9a600482016116ff565b6080850152610dab600582016116ff565b60a0850152600681015460c0850152600781015460e085015260088101546101008501526009810154610120850152610de6600a82016116ff565b610140850152610df8600b82016116ff565b610160850152610e0a600c82016117dc565b61018085015201541615156101a08201526040518091602082526101a0610f1b610f03610ebe610ea8610e92610e7c610e5188516102a060208c01526102c08b01906115f2565b60208901516001600160a01b031660408b8101919091528901518a8203601f190160608c01526115f2565b6060880151898203601f190160808b01526115f2565b6080870151888203601f190160a08a01526115f2565b60a0860151878203601f190160c08901526115f2565b60c085015160e087015260e0850151610100870152610100850151610120870152610120850151610140870152610140850151601f19878303016101608801526115f2565b610160840151858203601f19016101808701526115f2565b91610f2e61018082015183860190611617565b015115156102a08301520390f35b3461022f5761014036600319011261022f576001600160401b0360043581811161022f57610f6e903690600401611579565b9060243581811161022f57610f87903690600401611579565b9060443581811161022f57610fa0903690600401611579565b60643582811161022f57610fb8903690600401611579565b9160843590811161022f57610fd1903690600401611579565b9160ff601460405160208181610fed8b838151938492016115cf565b810160008152030190200154166112c757611242926040519161100f83611505565b60c435835260e435602084015261010435604084015261012435606084015260006080840152600060a0840152600060c0840152600060e08401526040519361105785611521565b8785523360208601528660408601526060850152608084015260a083015260a43560c0830152600060e0830152600061010083015260326101208301526040516110a08161153d565b60068152654d454449554d60d01b60208201526101408301526040516110c58161153d565b600a8152691d5b9d995c9a599a595960b21b602082015261016083015261018082015260016101a082015260146101a0604051602081885161110a8183858d016115cf565b8101600081520301902092611120815185611836565b6001840160018060a01b036020830151166bffffffffffffffffffffffff60a01b825416179055611158604082015160028601611836565b611169606082015160038601611836565b61117a608082015160048601611836565b61118b60a082015160058601611836565b60c0810151600685015560e08101516007850155610100810151600885015561012081015160098501556111c7610140820151600a8601611836565b6111d9610160820151600b8601611836565b60e06101808201518051600c8701556020810151600d8701556040810151600e8701556060810151600f8701556080810151601087015560a0810151601187015560c08101516012870155015160138501550151151591019060ff801983541691151516179055565b600354600160401b8110156109615780600161126192016003556117a5565b929092610478576112bc6112ae9261129a837facfdbfadb5efacee63d45b33a482a91a6ba525814efe023d86c68e2eaf0a161f96611836565b6040519384936060855260608501906115f2565b9083820360208501526115f2565b3360408301520390a1005b60405162461bcd60e51b81526020600482015260166024820152755374617274757020616c72656164792065786973747360501b6044820152606490fd5b3461022f5760208060031936011261022f576004356001600160401b03811161022f57611336903690600401611579565b908061134b60405193848151938492016115cf565b820191818160029485815203019020805461136581611985565b936113736040519586611558565b81855260009283528383208486019391845b84841061146e57604080518881528951818a01819052600092600582901b83018101918a918c9085015b8287106113bc5785850386f35b90919293828061145e600193603f198a820301865288519060e061144d61143a6114136113f286516101008088528701906115f2565b8a8060a01b03898801511689870152604087015186820360408801526115f2565b606080870151908601526080808701519086015260a08087015190868303908701526115f2565b60c08086015190858303908601526115f2565b9201519060e08184039101526115f2565b96019201960195929190926113af565b60088760019260409a999a5161148381611505565b61148c876116ff565b8152848060a01b038588015416838201526114a88688016116ff565b604082015260038701546060820152600487015460808201526114cd600588016116ff565b60a08201526114de600688016116ff565b60c08201526114ef600788016116ff565b60e0820152815201930193019291969596611385565b61010081019081106001600160401b0382111761096157604052565b6101c081019081106001600160401b0382111761096157604052565b604081019081106001600160401b0382111761096157604052565b90601f801991011681019081106001600160401b0382111761096157604052565b81601f8201121561022f578035906001600160401b03821161096157604051926115ad601f8401601f191660200185611558565b8284526020838301011161022f57816000926020809301838601378301015290565b60005b8381106115e25750506000910152565b81810151838201526020016115d2565b9060209161160b815180928185528580860191016115cf565b601f01601f1916010190565b60e08091805184526020810151602085015260408101516040850152606081015160608501526080810151608085015260a081015160a085015260c081015160c08501520151910152565b604060031982011261022f57600435906001600160401b03821161022f5761168c91600401611579565b9060243590565b80548210156116af5760005260206000209060031b0190600090565b634e487b7160e01b600052603260045260246000fd5b90600182811c921680156116f5575b60208310146116df57565b634e487b7160e01b600052602260045260246000fd5b91607f16916116d4565b9060405191826000825492611713846116c5565b908184526001948581169081600014611782575060011461173f575b505061173d92500383611558565b565b9093915060005260209081600020936000915b81831061176a57505061173d9350820101388061172f565b85548884018501529485019487945091830191611752565b91505061173d94506020925060ff191682840152151560051b820101388061172f565b6003548110156116af5760036000527fc2575a0e9e593c00f959f8c92f12db2869c3395a3b0502d05e2516446f71f85b0190600090565b906040516117e981611505565b60e0600782948054845260018101546020850152600281015460408501526003810154606085015260048101546080850152600581015460a0850152600681015460c08501520154910152565b91909182516001600160401b0381116109615761185382546116c5565b601f81116118fd575b50602080601f831160011461189957508192939460009261188e575b50508160011b916000199060031b1c1916179055565b015190503880611878565b90601f198316958460005282600020926000905b8882106118e5575050836001959697106118cc575b505050811b019055565b015160001960f88460031b161c191690553880806118c2565b806001859682949686015181550195019301906118ad565b600083815260208120601f840160051c8101926020851061193b575b601f0160051c01915b82811061193057505061185c565b818155600101611922565b9092508290611919565b1561194c57565b60405162461bcd60e51b815260206004820152601160248201527014dd185c9d1d5c081b9bdd08199bdd5b99607a1b6044820152606490fd5b6001600160401b0381116109615760051b6020019056fea2646970667358221220c6f040c17ab3a4dfb3ddddd3d08cf79919920dbb5f54c1eabe41073d794bc5d364736f6c63430008140033","opcodes":"PUSH1 0x80 DUP1 PUSH1 0x40 MSTORE CALLVALUE PUSH2 0x16 JUMPI PUSH2 0x19D2 SWAP1 DUP2 PUSH2 0x1C DUP3 CODECOPY RETURN JUMPDEST PUSH1 0x0 DUP1 REVERT INVALID PUSH1 0x80 PUSH1 0x40 MSTORE PUSH1 0x4 CALLDATASIZE LT ISZERO PUSH2 0x12 JUMPI PUSH1 0x0 DUP1 REVERT JUMPDEST PUSH1 0x0 CALLDATALOAD PUSH1 0xE0 SHR DUP1 PUSH4 0xB1B74ED EQ PUSH2 0x1305 JUMPI DUP1 PUSH4 0x125CE426 EQ PUSH2 0xF3C JUMPI DUP1 PUSH4 0x20972301 EQ PUSH2 0xC4C JUMPI DUP1 PUSH4 0x3614CA57 EQ PUSH2 0x9BC JUMPI DUP1 PUSH4 0x5D04ACDE EQ PUSH2 0x784 JUMPI DUP1 PUSH4 0x73851251 EQ PUSH2 0x6A3 JUMPI DUP1 PUSH4 0xB218A9BF EQ PUSH2 0x59C JUMPI DUP1 PUSH4 0xB49B693A EQ PUSH2 0x48E JUMPI DUP1 PUSH4 0xC75D7191 EQ PUSH2 0x429 JUMPI DUP1 PUSH4 0xF4B994D6 EQ PUSH2 0x234 JUMPI PUSH4 0xF86025C3 EQ PUSH2 0x95 JUMPI PUSH1 0x0 DUP1 REVERT JUMPDEST CALLVALUE PUSH2 0x22F JUMPI PUSH1 0x20 CALLDATASIZE PUSH1 0x3 NOT ADD SLT PUSH2 0x22F JUMPI PUSH1 0x4 CALLDATALOAD PUSH1 0x1 PUSH1 0x1 PUSH1 0x40 SHL SUB DUP2 GT PUSH2 0x22F JUMPI PUSH2 0xC5 SWAP1 CALLDATASIZE SWAP1 PUSH1 0x4 ADD PUSH2 0x1579 JUMP JUMPDEST PUSH1 0x40 MLOAD DUP2 DUP2 DUP1 SWAP4 MLOAD PUSH1 0x20 DUP2 SWAP4 ADD SWAP2 PUSH2 0xDC SWAP3 PUSH2 0x15CF JUMP JUMPDEST DUP2 ADD PUSH1 0x0 DUP2 MSTORE SUB PUSH1 0x20 ADD SWAP1 KECCAK256 PUSH2 0xF1 DUP2 PUSH2 0x16FF JUMP JUMPDEST PUSH1 0x1 DUP3 ADD SLOAD PUSH1 0x1 PUSH1 0x1 PUSH1 0xA0 SHL SUB AND SWAP2 PUSH2 0x10C PUSH1 0x2 DUP3 ADD PUSH2 0x16FF JUMP JUMPDEST PUSH2 0x118 PUSH1 0x3 DUP4 ADD PUSH2 0x16FF JUMP JUMPDEST PUSH2 0x124 PUSH1 0x4 DUP5 ADD PUSH2 0x16FF JUMP JUMPDEST PUSH2 0x130 PUSH1 0x5 DUP6 ADD PUSH2 0x16FF JUMP JUMPDEST PUSH1 0x6 DUP6 ADD SLOAD SWAP1 PUSH1 0x7 DUP7 ADD SLOAD PUSH1 0x8 DUP8 ADD SLOAD SWAP1 PUSH1 0x9 DUP9 ADD SLOAD SWAP3 PUSH1 0xA DUP10 ADD PUSH2 0x154 SWAP1 PUSH2 0x16FF JUMP JUMPDEST SWAP6 PUSH2 0x161 PUSH1 0xB DUP12 ADD PUSH2 0x16FF JUMP JUMPDEST SWAP8 PUSH2 0x16E PUSH1 0xC DUP13 ADD PUSH2 0x17DC JUMP JUMPDEST SWAP11 PUSH1 0x14 ADD SLOAD PUSH1 0xFF AND SWAP10 PUSH1 0x40 MLOAD DUP1 SWAP15 DUP2 SWAP15 PUSH2 0x2A0 DUP1 DUP5 MSTORE DUP4 ADD PUSH2 0x18F SWAP2 PUSH2 0x15F2 JUMP JUMPDEST SWAP2 PUSH1 0x20 ADD MSTORE DUP14 DUP1 DUP3 SUB SWAP1 PUSH1 0x40 ADD MSTORE PUSH2 0x1A6 SWAP2 PUSH2 0x15F2 JUMP JUMPDEST DUP13 DUP2 SUB PUSH1 0x60 DUP15 ADD MSTORE PUSH2 0x1B7 SWAP2 PUSH2 0x15F2 JUMP JUMPDEST DUP12 DUP2 SUB PUSH1 0x80 DUP14 ADD MSTORE PUSH2 0x1C8 SWAP2 PUSH2 0x15F2 JUMP JUMPDEST DUP11 DUP2 SUB PUSH1 0xA0 DUP13 ADD MSTORE PUSH2 0x1D9 SWAP2 PUSH2 0x15F2 JUMP JUMPDEST SWAP4 PUSH1 0xC0 DUP11 ADD MSTORE PUSH1 0xE0 DUP10 ADD MSTORE PUSH2 0x100 DUP9 ADD MSTORE PUSH2 0x120 DUP8 ADD MSTORE DUP6 DUP2 SUB PUSH2 0x140 DUP8 ADD MSTORE PUSH2 0x202 SWAP2 PUSH2 0x15F2 JUMP JUMPDEST DUP5 DUP2 SUB PUSH2 0x160 DUP7 ADD MSTORE PUSH2 0x214 SWAP2 PUSH2 0x15F2 JUMP JUMPDEST SWAP2 PUSH2 0x180 DUP5 ADD PUSH2 0x223 SWAP2 PUSH2 0x1617 JUMP JUMPDEST ISZERO ISZERO PUSH2 0x280 DUP4 ADD MSTORE SUB SWAP1 RETURN JUMPDEST PUSH1 0x0 DUP1 REVERT JUMPDEST CALLVALUE PUSH2 0x22F JUMPI PUSH1 0x20 DUP1 PUSH1 0x3 NOT CALLDATASIZE ADD SLT PUSH2 0x22F JUMPI PUSH1 0x4 CALLDATALOAD PUSH1 0x1 PUSH1 0x1 PUSH1 0x40 SHL SUB DUP2 GT PUSH2 0x22F JUMPI PUSH2 0x265 SWAP1 CALLDATASIZE SWAP1 PUSH1 0x4 ADD PUSH2 0x1579 JUMP JUMPDEST SWAP1 DUP1 PUSH2 0x27A PUSH1 0x40 MLOAD SWAP4 DUP5 DUP2 MLOAD SWAP4 DUP5 SWAP3 ADD PUSH2 0x15CF JUMP JUMPDEST DUP3 ADD SWAP2 DUP2 DUP2 PUSH1 0x1 SWAP5 DUP6 DUP2 MSTORE SUB ADD SWAP1 KECCAK256 DUP1 SLOAD SWAP2 PUSH2 0x295 DUP4 PUSH2 0x1985 JUMP JUMPDEST SWAP3 PUSH2 0x2A3 PUSH1 0x40 MLOAD SWAP5 DUP6 PUSH2 0x1558 JUMP JUMPDEST DUP1 DUP5 MSTORE DUP2 DUP5 ADD DUP1 SWAP4 PUSH1 0x0 MSTORE DUP3 PUSH1 0x0 KECCAK256 PUSH1 0x0 SWAP2 JUMPDEST DUP4 DUP4 LT PUSH2 0x398 JUMPI POP POP POP POP PUSH1 0x40 MLOAD SWAP4 DUP5 SWAP4 DUP3 DUP6 ADD SWAP1 DUP4 DUP7 MSTORE MLOAD DUP1 SWAP2 MSTORE PUSH1 0x40 DUP6 ADD SWAP3 PUSH1 0x40 DUP3 PUSH1 0x5 SHL DUP8 ADD ADD SWAP5 SWAP4 PUSH1 0x0 SWAP1 JUMPDEST DUP4 DUP3 LT PUSH2 0x2F3 JUMPI DUP8 DUP8 SUB DUP9 RETURN JUMPDEST SWAP2 DUP5 SWAP7 DUP2 SWAP6 SWAP3 SWAP5 SWAP7 SWAP9 POP DUP2 SWAP1 PUSH1 0x3F NOT DUP12 DUP3 SUB ADD DUP6 MSTORE DUP10 MLOAD SWAP1 PUSH1 0xE0 DUP1 PUSH2 0x36A PUSH2 0x357 PUSH2 0x33A PUSH2 0x32A DUP8 MLOAD PUSH2 0x100 DUP1 DUP10 MSTORE DUP9 ADD SWAP1 PUSH2 0x15F2 JUMP JUMPDEST DUP9 DUP9 ADD MLOAD DUP8 DUP3 SUB DUP11 DUP10 ADD MSTORE PUSH2 0x15F2 JUMP JUMPDEST PUSH1 0x40 DUP8 ADD MLOAD PUSH1 0x40 DUP8 ADD MSTORE PUSH1 0x60 DUP1 DUP9 ADD MLOAD SWAP1 DUP8 DUP4 SUB SWAP1 DUP9 ADD MSTORE PUSH2 0x15F2 JUMP JUMPDEST PUSH1 0x80 DUP1 DUP8 ADD MLOAD SWAP1 DUP7 DUP4 SUB SWAP1 DUP8 ADD MSTORE PUSH2 0x15F2 JUMP JUMPDEST SWAP4 PUSH1 0xA0 DUP1 DUP3 ADD MLOAD SWAP1 DUP6 ADD MSTORE PUSH1 0xC0 DUP1 DUP3 ADD MLOAD SWAP1 DUP6 ADD MSTORE ADD MLOAD ISZERO ISZERO SWAP2 ADD MSTORE SWAP9 ADD SWAP3 ADD SWAP3 ADD DUP8 SWAP7 SWAP6 SWAP4 SWAP2 SWAP5 SWAP3 PUSH2 0x2E6 JUMP JUMPDEST SWAP7 PUSH1 0x8 DUP6 DUP3 SWAP8 SWAP9 SWAP7 SWAP10 PUSH1 0x40 MLOAD PUSH2 0x3AD DUP2 PUSH2 0x1505 JUMP JUMPDEST PUSH2 0x3B6 DUP7 PUSH2 0x16FF JUMP JUMPDEST DUP2 MSTORE PUSH2 0x3C3 DUP6 DUP8 ADD PUSH2 0x16FF JUMP JUMPDEST DUP4 DUP3 ADD MSTORE PUSH1 0x2 DUP7 ADD SLOAD PUSH1 0x40 DUP3 ADD MSTORE PUSH2 0x3DD PUSH1 0x3 DUP8 ADD PUSH2 0x16FF JUMP JUMPDEST PUSH1 0x60 DUP3 ADD MSTORE PUSH2 0x3EE PUSH1 0x4 DUP8 ADD PUSH2 0x16FF JUMP JUMPDEST PUSH1 0x80 DUP3 ADD MSTORE PUSH1 0x5 DUP7 ADD SLOAD PUSH1 0xA0 DUP3 ADD MSTORE PUSH1 0x6 DUP7 ADD SLOAD PUSH1 0xC0 DUP3 ADD MSTORE PUSH1 0xFF PUSH1 0x7 DUP8 ADD SLOAD AND ISZERO ISZERO PUSH1 0xE0 DUP3 ADD MSTORE DUP2 MSTORE ADD SWAP3 ADD SWAP3 ADD SWAP2 SWAP1 SWAP7 SWAP4 SWAP6 SWAP5 SWAP7 PUSH2 0x2B6 JUMP JUMPDEST CALLVALUE PUSH2 0x22F JUMPI PUSH1 0x20 CALLDATASIZE PUSH1 0x3 NOT ADD SLT PUSH2 0x22F JUMPI PUSH1 0x4 CALLDATALOAD PUSH1 0x3 SLOAD DUP2 LT ISZERO PUSH2 0x22F JUMPI PUSH2 0x450 SWAP1 PUSH2 0x17A5 JUMP JUMPDEST PUSH2 0x478 JUMPI PUSH2 0x460 PUSH2 0x474 SWAP2 PUSH2 0x16FF JUMP JUMPDEST PUSH1 0x40 MLOAD SWAP2 DUP3 SWAP2 PUSH1 0x20 DUP4 MSTORE PUSH1 0x20 DUP4 ADD SWAP1 PUSH2 0x15F2 JUMP JUMPDEST SUB SWAP1 RETURN JUMPDEST PUSH4 0x4E487B71 PUSH1 0xE0 SHL PUSH1 0x0 MSTORE PUSH1 0x0 PUSH1 0x4 MSTORE PUSH1 0x24 PUSH1 0x0 REVERT JUMPDEST CALLVALUE PUSH2 0x22F JUMPI PUSH1 0x60 CALLDATASIZE PUSH1 0x3 NOT ADD SLT PUSH2 0x22F JUMPI PUSH1 0x1 PUSH1 0x1 PUSH1 0x40 SHL SUB PUSH1 0x4 CALLDATALOAD DUP2 DUP2 GT PUSH2 0x22F JUMPI PUSH2 0x4BF SWAP1 CALLDATASIZE SWAP1 PUSH1 0x4 ADD PUSH2 0x1579 JUMP JUMPDEST SWAP1 PUSH1 0x24 CALLDATALOAD SWAP2 PUSH1 0x44 CALLDATALOAD SWAP2 DUP3 GT PUSH2 0x22F JUMPI PUSH32 0xB43428490AF27A1462BE03E9F1584D951D01E99E832B8CBD206223C137D4AE74 SWAP3 PUSH2 0x57D PUSH2 0x504 PUSH2 0x591 SWAP5 CALLDATASIZE SWAP1 PUSH1 0x4 ADD PUSH2 0x1579 JUMP JUMPDEST PUSH1 0xA PUSH2 0x56D PUSH1 0x20 DUP7 PUSH2 0x53B PUSH1 0xFF PUSH1 0x14 PUSH1 0x40 MLOAD DUP6 DUP2 DUP2 DUP8 MLOAD SWAP8 ADD SWAP7 PUSH2 0x529 DUP2 DUP4 DUP11 PUSH2 0x15CF JUMP JUMPDEST DUP2 ADD PUSH1 0x0 DUP2 MSTORE SUB ADD SWAP1 KECCAK256 ADD SLOAD AND PUSH2 0x1945 JUMP JUMPDEST DUP7 PUSH1 0x9 PUSH1 0x40 MLOAD DUP5 DUP2 DUP13 MLOAD PUSH2 0x550 DUP2 DUP4 DUP10 PUSH2 0x15CF JUMP JUMPDEST DUP2 ADD PUSH1 0x0 DUP2 MSTORE SUB ADD SWAP1 KECCAK256 ADD SSTORE PUSH1 0x40 MLOAD DUP1 SWAP4 DUP2 SWAP3 DUP11 MLOAD SWAP3 DUP4 SWAP2 PUSH2 0x15CF JUMP JUMPDEST DUP2 ADD PUSH1 0x0 DUP2 MSTORE SUB ADD SWAP1 KECCAK256 ADD PUSH2 0x1836 JUMP JUMPDEST PUSH1 0x40 MLOAD SWAP3 DUP4 SWAP3 PUSH1 0x40 DUP5 MSTORE PUSH1 0x40 DUP5 ADD SWAP1 PUSH2 0x15F2 JUMP JUMPDEST SWAP1 PUSH1 0x20 DUP4 ADD MSTORE SUB SWAP1 LOG1 STOP JUMPDEST CALLVALUE PUSH2 0x22F JUMPI PUSH1 0x20 PUSH2 0x5C4 PUSH2 0x5AF CALLDATASIZE PUSH2 0x1662 JUMP JUMPDEST SWAP3 SWAP1 DUP2 PUSH1 0x40 MLOAD SWAP4 DUP3 DUP6 DUP1 SWAP5 MLOAD SWAP4 DUP5 SWAP3 ADD PUSH2 0x15CF JUMP JUMPDEST DUP2 ADD PUSH1 0x2 DUP2 MSTORE SUB ADD SWAP1 KECCAK256 DUP1 SLOAD DUP3 LT ISZERO PUSH2 0x22F JUMPI PUSH2 0x65C SWAP2 PUSH2 0x5E4 SWAP2 PUSH2 0x1693 JUMP JUMPDEST POP PUSH2 0x474 PUSH2 0x5F1 DUP3 PUSH2 0x16FF JUMP JUMPDEST SWAP2 PUSH2 0x695 PUSH1 0x1 DUP1 PUSH1 0xA0 SHL SUB PUSH1 0x1 DUP4 ADD SLOAD AND SWAP2 PUSH2 0x687 PUSH2 0x612 PUSH1 0x2 DUP4 ADD PUSH2 0x16FF JUMP JUMPDEST SWAP4 PUSH1 0x3 DUP4 ADD SLOAD SWAP1 PUSH1 0x4 DUP5 ADD SLOAD PUSH2 0x66F PUSH2 0x62D PUSH1 0x5 DUP8 ADD PUSH2 0x16FF JUMP JUMPDEST SWAP3 PUSH2 0x646 PUSH1 0x7 PUSH2 0x63F PUSH1 0x6 DUP11 ADD PUSH2 0x16FF JUMP JUMPDEST SWAP9 ADD PUSH2 0x16FF JUMP JUMPDEST SWAP9 PUSH1 0x40 MLOAD SWAP13 DUP14 SWAP13 DUP14 PUSH2 0x100 SWAP1 DUP2 DUP2 MSTORE ADD SWAP1 PUSH2 0x15F2 JUMP JUMPDEST SWAP2 PUSH1 0x20 DUP14 ADD MSTORE DUP12 DUP3 SUB PUSH1 0x40 DUP14 ADD MSTORE PUSH2 0x15F2 JUMP JUMPDEST SWAP3 PUSH1 0x60 DUP11 ADD MSTORE PUSH1 0x80 DUP10 ADD MSTORE DUP8 DUP3 SUB PUSH1 0xA0 DUP10 ADD MSTORE PUSH2 0x15F2 JUMP JUMPDEST SWAP1 DUP6 DUP3 SUB PUSH1 0xC0 DUP8 ADD MSTORE PUSH2 0x15F2 JUMP JUMPDEST SWAP1 DUP4 DUP3 SUB PUSH1 0xE0 DUP6 ADD MSTORE PUSH2 0x15F2 JUMP JUMPDEST CALLVALUE PUSH2 0x22F JUMPI PUSH1 0x20 PUSH2 0x6B6 PUSH2 0x5AF CALLDATASIZE PUSH2 0x1662 JUMP JUMPDEST DUP2 ADD PUSH1 0x1 DUP2 MSTORE SUB ADD SWAP1 KECCAK256 DUP1 SLOAD DUP3 LT ISZERO PUSH2 0x22F JUMPI PUSH2 0x73F SWAP2 PUSH2 0x6D6 SWAP2 PUSH2 0x1693 JUMP JUMPDEST POP PUSH2 0x6E0 DUP2 PUSH2 0x16FF JUMP JUMPDEST SWAP1 PUSH2 0x6ED PUSH1 0x1 DUP3 ADD PUSH2 0x16FF JUMP JUMPDEST PUSH1 0x2 DUP3 ADD SLOAD SWAP2 PUSH2 0x76E PUSH2 0x702 PUSH1 0x3 DUP4 ADD PUSH2 0x16FF JUMP JUMPDEST SWAP4 PUSH2 0x760 PUSH2 0x712 PUSH1 0x4 DUP6 ADD PUSH2 0x16FF JUMP JUMPDEST SWAP2 PUSH1 0x5 DUP6 ADD SLOAD SWAP7 PUSH2 0x74D PUSH1 0xFF PUSH1 0x7 PUSH1 0x6 DUP10 ADD SLOAD SWAP9 ADD SLOAD AND SWAP8 PUSH1 0x40 MLOAD SWAP12 DUP13 SWAP12 DUP13 PUSH2 0x100 DUP1 SWAP2 MSTORE DUP14 ADD SWAP1 PUSH2 0x15F2 JUMP JUMPDEST SWAP1 DUP12 DUP3 SUB PUSH1 0x20 DUP14 ADD MSTORE PUSH2 0x15F2 JUMP JUMPDEST SWAP2 PUSH1 0x40 DUP11 ADD MSTORE DUP9 DUP3 SUB PUSH1 0x60 DUP11 ADD MSTORE PUSH2 0x15F2 JUMP JUMPDEST SWAP1 DUP7 DUP3 SUB PUSH1 0x80 DUP9 ADD MSTORE PUSH2 0x15F2 JUMP JUMPDEST SWAP3 PUSH1 0xA0 DUP6 ADD MSTORE PUSH1 0xC0 DUP5 ADD MSTORE ISZERO ISZERO PUSH1 0xE0 DUP4 ADD MSTORE SUB SWAP1 RETURN JUMPDEST CALLVALUE PUSH2 0x22F JUMPI PUSH1 0x80 CALLDATASIZE PUSH1 0x3 NOT ADD SLT PUSH2 0x22F JUMPI PUSH1 0x1 PUSH1 0x1 PUSH1 0x40 SHL SUB PUSH1 0x4 CALLDATALOAD DUP2 DUP2 GT PUSH2 0x22F JUMPI PUSH2 0x7B5 SWAP1 CALLDATASIZE SWAP1 PUSH1 0x4 ADD PUSH2 0x1579 JUMP JUMPDEST PUSH1 0x24 CALLDATALOAD DUP3 DUP2 GT PUSH2 0x22F JUMPI PUSH2 0x7CD SWAP1 CALLDATASIZE SWAP1 PUSH1 0x4 ADD PUSH2 0x1579 JUMP JUMPDEST PUSH1 0x44 CALLDATALOAD DUP4 DUP2 GT PUSH2 0x22F JUMPI PUSH2 0x7E5 SWAP1 CALLDATASIZE SWAP1 PUSH1 0x4 ADD PUSH2 0x1579 JUMP JUMPDEST SWAP2 PUSH1 0x40 MLOAD SWAP1 DUP1 MLOAD SWAP1 PUSH2 0x808 PUSH1 0xFF PUSH1 0x14 PUSH1 0x20 SWAP6 DUP7 DUP2 DUP2 DUP8 ADD SWAP8 PUSH2 0x529 DUP2 DUP4 DUP12 PUSH2 0x15CF JUMP JUMPDEST PUSH1 0x40 MLOAD PUSH1 0x1 DUP3 MLOAD PUSH2 0x81A DUP2 DUP5 DUP8 PUSH2 0x15CF JUMP JUMPDEST DUP3 ADD SWAP2 PUSH1 0x0 DUP4 MSTORE DUP6 DUP2 DUP4 DUP1 PUSH1 0xA0 SHL SUB SWAP5 SUB ADD SWAP1 KECCAK256 ADD SLOAD AND CALLER SUB PUSH2 0x977 JUMPI PUSH2 0x84E SWAP2 DUP4 SWAP2 PUSH1 0x40 MLOAD SWAP4 DUP5 SWAP3 DUP4 SWAP3 MLOAD SWAP3 DUP4 SWAP2 PUSH2 0x15CF JUMP JUMPDEST DUP2 ADD PUSH1 0x1 DUP2 MSTORE SUB ADD SWAP1 KECCAK256 SWAP1 PUSH1 0x40 MLOAD SWAP3 PUSH2 0x866 DUP5 PUSH2 0x1505 JUMP JUMPDEST DUP4 MSTORE DUP1 DUP4 ADD SWAP4 DUP5 MSTORE PUSH1 0x40 DUP4 ADD SWAP3 PUSH1 0x64 CALLDATALOAD DUP5 MSTORE PUSH1 0x40 MLOAD SWAP6 PUSH2 0x885 DUP8 PUSH2 0x153D JUMP JUMPDEST PUSH1 0x7 DUP8 MSTORE PUSH7 0x70656E64696E67 PUSH1 0xC8 SHL DUP4 DUP9 ADD MSTORE PUSH1 0x60 DUP3 ADD SWAP7 DUP8 MSTORE PUSH1 0x40 MLOAD SWAP3 DUP4 ADD SWAP1 DUP2 GT DUP4 DUP3 LT OR PUSH2 0x961 JUMPI PUSH1 0x40 MSTORE PUSH1 0x0 DUP3 MSTORE PUSH1 0x80 DUP2 ADD SWAP2 DUP3 MSTORE PUSH1 0xA0 DUP2 ADD SWAP1 PUSH1 0x0 DUP3 MSTORE PUSH1 0xC0 DUP2 ADD SWAP3 PUSH1 0x0 DUP5 MSTORE PUSH1 0xE0 DUP3 ADD SWAP5 PUSH1 0x0 DUP7 MSTORE DUP1 SLOAD PUSH1 0x1 PUSH1 0x40 SHL DUP2 LT ISZERO PUSH2 0x961 JUMPI PUSH2 0x8F6 SWAP2 PUSH1 0x1 DUP3 ADD DUP2 SSTORE PUSH2 0x1693 JUMP JUMPDEST SWAP8 SWAP1 SWAP8 PUSH2 0x478 JUMPI PUSH2 0x95F SWAP9 PUSH1 0x7 SWAP8 PUSH2 0x923 PUSH2 0x933 SWAP4 PUSH2 0x919 PUSH2 0x93D SWAP8 MLOAD DUP14 PUSH2 0x1836 JUMP JUMPDEST MLOAD PUSH1 0x1 DUP13 ADD PUSH2 0x1836 JUMP JUMPDEST MLOAD PUSH1 0x2 DUP11 ADD SSTORE MLOAD PUSH1 0x3 DUP10 ADD PUSH2 0x1836 JUMP JUMPDEST MLOAD PUSH1 0x4 DUP8 ADD PUSH2 0x1836 JUMP JUMPDEST MLOAD PUSH1 0x5 DUP6 ADD SSTORE MLOAD PUSH1 0x6 DUP5 ADD SSTORE MLOAD ISZERO ISZERO SWAP2 ADD SWAP1 PUSH1 0xFF DUP1 NOT DUP4 SLOAD AND SWAP2 ISZERO ISZERO AND OR SWAP1 SSTORE JUMP JUMPDEST STOP JUMPDEST PUSH4 0x4E487B71 PUSH1 0xE0 SHL PUSH1 0x0 MSTORE PUSH1 0x41 PUSH1 0x4 MSTORE PUSH1 0x24 PUSH1 0x0 REVERT JUMPDEST PUSH1 0x40 MLOAD PUSH3 0x461BCD PUSH1 0xE5 SHL DUP2 MSTORE PUSH1 0x4 DUP2 ADD DUP5 SWAP1 MSTORE PUSH1 0x1F PUSH1 0x24 DUP3 ADD MSTORE PUSH32 0x4F6E6C7920666F756E6465722063616E20616464206D696C6573746F6E657300 PUSH1 0x44 DUP3 ADD MSTORE PUSH1 0x64 SWAP1 REVERT JUMPDEST PUSH1 0xA0 CALLDATASIZE PUSH1 0x3 NOT ADD SLT PUSH2 0x22F JUMPI PUSH1 0x1 PUSH1 0x1 PUSH1 0x40 SHL SUB PUSH1 0x4 CALLDATALOAD DUP2 DUP2 GT PUSH2 0x22F JUMPI PUSH2 0x9E8 SWAP1 CALLDATASIZE SWAP1 PUSH1 0x4 ADD PUSH2 0x1579 JUMP JUMPDEST SWAP1 PUSH1 0x24 CALLDATALOAD DUP2 DUP2 GT PUSH2 0x22F JUMPI PUSH2 0xA01 SWAP1 CALLDATASIZE SWAP1 PUSH1 0x4 ADD PUSH2 0x1579 JUMP JUMPDEST SWAP2 PUSH1 0x44 CALLDATALOAD PUSH1 0x64 CALLDATALOAD DUP4 DUP2 GT PUSH2 0x22F JUMPI PUSH2 0xA1D SWAP1 CALLDATASIZE SWAP1 PUSH1 0x4 ADD PUSH2 0x1579 JUMP JUMPDEST SWAP3 PUSH1 0x84 CALLDATALOAD SWAP1 DUP2 GT PUSH2 0x22F JUMPI PUSH2 0xA36 SWAP1 CALLDATASIZE SWAP1 PUSH1 0x4 ADD PUSH2 0x1579 JUMP JUMPDEST PUSH1 0x40 MLOAD DUP6 MLOAD PUSH2 0xA56 PUSH1 0xFF PUSH1 0x14 PUSH1 0x20 SWAP5 DUP6 DUP2 DUP2 DUP14 ADD SWAP7 PUSH2 0x529 DUP2 DUP4 DUP11 PUSH2 0x15CF JUMP JUMPDEST PUSH1 0x7 PUSH1 0x40 MLOAD DUP4 DUP2 DUP11 MLOAD PUSH2 0xA6A DUP2 DUP4 DUP9 PUSH2 0x15CF JUMP JUMPDEST DUP2 ADD PUSH1 0x0 DUP2 MSTORE SUB ADD SWAP1 KECCAK256 ADD DUP1 SLOAD SWAP1 DUP6 DUP3 ADD DUP1 SWAP3 GT PUSH2 0xC36 JUMPI SSTORE PUSH1 0x8 PUSH1 0x40 MLOAD DUP4 DUP2 DUP11 MLOAD PUSH2 0xA97 DUP2 DUP4 DUP9 PUSH2 0x15CF JUMP JUMPDEST DUP2 ADD PUSH1 0x0 DUP2 MSTORE SUB ADD SWAP1 KECCAK256 ADD DUP1 SLOAD SWAP2 PUSH1 0x1 DUP4 ADD DUP1 SWAP4 GT PUSH2 0xC36 JUMPI PUSH2 0xAC8 SWAP3 DUP5 SWAP3 SSTORE PUSH1 0x40 MLOAD DUP1 SWAP4 DUP2 SWAP3 DUP12 MLOAD SWAP3 DUP4 SWAP2 PUSH2 0x15CF JUMP JUMPDEST DUP2 ADD PUSH1 0x2 DUP2 MSTORE SUB ADD SWAP1 KECCAK256 SWAP6 PUSH1 0x40 MLOAD SWAP3 PUSH2 0xAE0 DUP5 PUSH2 0x1505 JUMP JUMPDEST DUP6 DUP5 MSTORE DUP3 DUP5 ADD SWAP8 CALLER DUP10 MSTORE PUSH1 0x40 DUP6 ADD SWAP5 DUP4 DUP7 MSTORE PUSH1 0x60 DUP2 ADD SWAP3 DUP8 DUP5 MSTORE PUSH1 0x80 DUP3 ADD SWAP7 TIMESTAMP DUP9 MSTORE PUSH1 0xA0 DUP4 ADD SWAP11 DUP12 MSTORE PUSH1 0x40 MLOAD SWAP4 PUSH2 0xB16 DUP6 PUSH2 0x153D JUMP JUMPDEST PUSH1 0x15 DUP6 MSTORE PUSH21 0x50686173652031202D20496E2050726F6772657373 PUSH1 0x58 SHL DUP9 DUP7 ADD MSTORE PUSH1 0xC0 DUP5 ADD SWAP5 DUP6 MSTORE PUSH1 0xE0 DUP5 ADD SWAP3 DUP4 MSTORE DUP1 SLOAD PUSH1 0x1 PUSH1 0x40 SHL DUP2 LT ISZERO PUSH2 0x961 JUMPI PUSH2 0xB62 SWAP2 PUSH1 0x1 DUP3 ADD DUP2 SSTORE PUSH2 0x1693 JUMP JUMPDEST SWAP5 SWAP1 SWAP5 PUSH2 0x478 JUMPI PUSH2 0xBF2 PUSH2 0xC18 SWAP13 PUSH2 0xC25 SWAP11 PUSH32 0x96FFF59018F7E61825E5D701C8F3CB89698D39DCDE398C54E47E8C14B28599CA SWAP16 SWAP9 PUSH2 0xBDC PUSH2 0xBFC SWAP7 PUSH2 0xC04 SWAP12 PUSH2 0xBAF PUSH1 0x7 SWAP12 MLOAD DUP14 PUSH2 0x1836 JUMP JUMPDEST MLOAD PUSH1 0x1 DUP13 ADD DUP1 SLOAD PUSH1 0x1 PUSH1 0x1 PUSH1 0xA0 SHL SUB NOT AND PUSH1 0x1 PUSH1 0x1 PUSH1 0xA0 SHL SUB SWAP3 SWAP1 SWAP3 AND SWAP2 SWAP1 SWAP2 OR SWAP1 SSTORE MLOAD PUSH1 0x2 DUP12 ADD PUSH2 0x1836 JUMP JUMPDEST MLOAD PUSH1 0x3 DUP10 ADD SSTORE MLOAD PUSH1 0x4 DUP9 ADD SSTORE MLOAD PUSH1 0x5 DUP8 ADD PUSH2 0x1836 JUMP JUMPDEST MLOAD PUSH1 0x6 DUP6 ADD PUSH2 0x1836 JUMP JUMPDEST MLOAD SWAP2 ADD PUSH2 0x1836 JUMP JUMPDEST PUSH1 0x40 MLOAD SWAP6 DUP7 SWAP6 PUSH1 0x80 DUP8 MSTORE PUSH1 0x80 DUP8 ADD SWAP1 PUSH2 0x15F2 JUMP JUMPDEST SWAP2 DUP6 DUP4 SUB SWAP1 DUP7 ADD MSTORE PUSH2 0x15F2 JUMP JUMPDEST SWAP1 CALLER PUSH1 0x40 DUP5 ADD MSTORE PUSH1 0x60 DUP4 ADD MSTORE SUB SWAP1 LOG1 STOP JUMPDEST PUSH4 0x4E487B71 PUSH1 0xE0 SHL PUSH1 0x0 MSTORE PUSH1 0x11 PUSH1 0x4 MSTORE PUSH1 0x24 PUSH1 0x0 REVERT JUMPDEST CALLVALUE PUSH2 0x22F JUMPI PUSH1 0x20 CALLDATASIZE PUSH1 0x3 NOT ADD SLT PUSH2 0x22F JUMPI PUSH1 0x4 CALLDATALOAD PUSH1 0x1 PUSH1 0x1 PUSH1 0x40 SHL SUB DUP2 GT PUSH2 0x22F JUMPI PUSH1 0x20 PUSH2 0xC81 PUSH2 0xD33 SWAP3 CALLDATASIZE SWAP1 PUSH1 0x4 ADD PUSH2 0x1579 JUMP JUMPDEST PUSH1 0x0 PUSH2 0x1A0 PUSH1 0x40 MLOAD PUSH2 0xC92 DUP2 PUSH2 0x1521 JUMP JUMPDEST PUSH1 0x60 DUP2 MSTORE DUP3 DUP6 DUP3 ADD MSTORE PUSH1 0x60 PUSH1 0x40 DUP3 ADD MSTORE PUSH1 0x60 DUP1 DUP3 ADD MSTORE PUSH1 0x60 PUSH1 0x80 DUP3 ADD MSTORE PUSH1 0x60 PUSH1 0xA0 DUP3 ADD MSTORE DUP3 PUSH1 0xC0 DUP3 ADD MSTORE DUP3 PUSH1 0xE0 DUP3 ADD MSTORE DUP3 PUSH2 0x100 DUP3 ADD MSTORE DUP3 PUSH2 0x120 DUP3 ADD MSTORE PUSH1 0x60 PUSH2 0x140 DUP3 ADD MSTORE PUSH1 0x60 PUSH2 0x160 DUP3 ADD MSTORE PUSH1 0x40 MLOAD PUSH2 0xCEC DUP2 PUSH2 0x1505 JUMP JUMPDEST DUP4 DUP2 MSTORE DUP4 DUP7 DUP3 ADD MSTORE DUP4 PUSH1 0x40 DUP3 ADD MSTORE DUP4 PUSH1 0x60 DUP3 ADD MSTORE DUP4 PUSH1 0x80 DUP3 ADD MSTORE DUP4 PUSH1 0xA0 DUP3 ADD MSTORE DUP4 PUSH1 0xC0 DUP3 ADD MSTORE DUP4 PUSH1 0xE0 DUP3 ADD MSTORE PUSH2 0x180 DUP3 ADD MSTORE ADD MSTORE DUP2 PUSH1 0x40 MLOAD SWAP4 DUP3 DUP6 DUP1 SWAP5 MLOAD SWAP4 DUP5 SWAP3 ADD PUSH2 0x15CF JUMP JUMPDEST DUP2 ADD PUSH1 0x0 DUP2 MSTORE SUB ADD SWAP1 KECCAK256 PUSH1 0xFF PUSH1 0x14 PUSH1 0x40 MLOAD SWAP3 PUSH2 0xD4E DUP5 PUSH2 0x1521 JUMP JUMPDEST PUSH2 0xD57 DUP2 PUSH2 0x16FF JUMP JUMPDEST DUP5 MSTORE PUSH1 0x1 DUP2 ADD SLOAD PUSH1 0x1 PUSH1 0x1 PUSH1 0xA0 SHL SUB AND PUSH1 0x20 DUP6 ADD MSTORE PUSH2 0xD78 PUSH1 0x2 DUP3 ADD PUSH2 0x16FF JUMP JUMPDEST PUSH1 0x40 DUP6 ADD MSTORE PUSH2 0xD89 PUSH1 0x3 DUP3 ADD PUSH2 0x16FF JUMP JUMPDEST PUSH1 0x60 DUP6 ADD MSTORE PUSH2 0xD9A PUSH1 0x4 DUP3 ADD PUSH2 0x16FF JUMP JUMPDEST PUSH1 0x80 DUP6 ADD MSTORE PUSH2 0xDAB PUSH1 0x5 DUP3 ADD PUSH2 0x16FF JUMP JUMPDEST PUSH1 0xA0 DUP6 ADD MSTORE PUSH1 0x6 DUP2 ADD SLOAD PUSH1 0xC0 DUP6 ADD MSTORE PUSH1 0x7 DUP2 ADD SLOAD PUSH1 0xE0 DUP6 ADD MSTORE PUSH1 0x8 DUP2 ADD SLOAD PUSH2 0x100 DUP6 ADD MSTORE PUSH1 0x9 DUP2 ADD SLOAD PUSH2 0x120 DUP6 ADD MSTORE PUSH2 0xDE6 PUSH1 0xA DUP3 ADD PUSH2 0x16FF JUMP JUMPDEST PUSH2 0x140 DUP6 ADD MSTORE PUSH2 0xDF8 PUSH1 0xB DUP3 ADD PUSH2 0x16FF JUMP JUMPDEST PUSH2 0x160 DUP6 ADD MSTORE PUSH2 0xE0A PUSH1 0xC DUP3 ADD PUSH2 0x17DC JUMP JUMPDEST PUSH2 0x180 DUP6 ADD MSTORE ADD SLOAD AND ISZERO ISZERO PUSH2 0x1A0 DUP3 ADD MSTORE PUSH1 0x40 MLOAD DUP1 SWAP2 PUSH1 0x20 DUP3 MSTORE PUSH2 0x1A0 PUSH2 0xF1B PUSH2 0xF03 PUSH2 0xEBE PUSH2 0xEA8 PUSH2 0xE92 PUSH2 0xE7C PUSH2 0xE51 DUP9 MLOAD PUSH2 0x2A0 PUSH1 0x20 DUP13 ADD MSTORE PUSH2 0x2C0 DUP12 ADD SWAP1 PUSH2 0x15F2 JUMP JUMPDEST PUSH1 0x20 DUP10 ADD MLOAD PUSH1 0x1 PUSH1 0x1 PUSH1 0xA0 SHL SUB AND PUSH1 0x40 DUP12 DUP2 ADD SWAP2 SWAP1 SWAP2 MSTORE DUP10 ADD MLOAD DUP11 DUP3 SUB PUSH1 0x1F NOT ADD PUSH1 0x60 DUP13 ADD MSTORE PUSH2 0x15F2 JUMP JUMPDEST PUSH1 0x60 DUP9 ADD MLOAD DUP10 DUP3 SUB PUSH1 0x1F NOT ADD PUSH1 0x80 DUP12 ADD MSTORE PUSH2 0x15F2 JUMP JUMPDEST PUSH1 0x80 DUP8 ADD MLOAD DUP9 DUP3 SUB PUSH1 0x1F NOT ADD PUSH1 0xA0 DUP11 ADD MSTORE PUSH2 0x15F2 JUMP JUMPDEST PUSH1 0xA0 DUP7 ADD MLOAD DUP8 DUP3 SUB PUSH1 0x1F NOT ADD PUSH1 0xC0 DUP10 ADD MSTORE PUSH2 0x15F2 JUMP JUMPDEST PUSH1 0xC0 DUP6 ADD MLOAD PUSH1 0xE0 DUP8 ADD MSTORE PUSH1 0xE0 DUP6 ADD MLOAD PUSH2 0x100 DUP8 ADD MSTORE PUSH2 0x100 DUP6 ADD MLOAD PUSH2 0x120 DUP8 ADD MSTORE PUSH2 0x120 DUP6 ADD MLOAD PUSH2 0x140 DUP8 ADD MSTORE PUSH2 0x140 DUP6 ADD MLOAD PUSH1 0x1F NOT DUP8 DUP4 SUB ADD PUSH2 0x160 DUP9 ADD MSTORE PUSH2 0x15F2 JUMP JUMPDEST PUSH2 0x160 DUP5 ADD MLOAD DUP6 DUP3 SUB PUSH1 0x1F NOT ADD PUSH2 0x180 DUP8 ADD MSTORE PUSH2 0x15F2 JUMP JUMPDEST SWAP2 PUSH2 0xF2E PUSH2 0x180 DUP3 ADD MLOAD DUP4 DUP7 ADD SWAP1 PUSH2 0x1617 JUMP JUMPDEST ADD MLOAD ISZERO ISZERO PUSH2 0x2A0 DUP4 ADD MSTORE SUB SWAP1 RETURN JUMPDEST CALLVALUE PUSH2 0x22F JUMPI PUSH2 0x140 CALLDATASIZE PUSH1 0x3 NOT ADD SLT PUSH2 0x22F JUMPI PUSH1 0x1 PUSH1 0x1 PUSH1 0x40 SHL SUB PUSH1 0x4 CALLDATALOAD DUP2 DUP2 GT PUSH2 0x22F JUMPI PUSH2 0xF6E SWAP1 CALLDATASIZE SWAP1 PUSH1 0x4 ADD PUSH2 0x1579 JUMP JUMPDEST SWAP1 PUSH1 0x24 CALLDATALOAD DUP2 DUP2 GT PUSH2 0x22F JUMPI PUSH2 0xF87 SWAP1 CALLDATASIZE SWAP1 PUSH1 0x4 ADD PUSH2 0x1579 JUMP JUMPDEST SWAP1 PUSH1 0x44 CALLDATALOAD DUP2 DUP2 GT PUSH2 0x22F JUMPI PUSH2 0xFA0 SWAP1 CALLDATASIZE SWAP1 PUSH1 0x4 ADD PUSH2 0x1579 JUMP JUMPDEST PUSH1 0x64 CALLDATALOAD DUP3 DUP2 GT PUSH2 0x22F JUMPI PUSH2 0xFB8 SWAP1 CALLDATASIZE SWAP1 PUSH1 0x4 ADD PUSH2 0x1579 JUMP JUMPDEST SWAP2 PUSH1 0x84 CALLDATALOAD SWAP1 DUP2 GT PUSH2 0x22F JUMPI PUSH2 0xFD1 SWAP1 CALLDATASIZE SWAP1 PUSH1 0x4 ADD PUSH2 0x1579 JUMP JUMPDEST SWAP2 PUSH1 0xFF PUSH1 0x14 PUSH1 0x40 MLOAD PUSH1 0x20 DUP2 DUP2 PUSH2 0xFED DUP12 DUP4 DUP2 MLOAD SWAP4 DUP5 SWAP3 ADD PUSH2 0x15CF JUMP JUMPDEST DUP2 ADD PUSH1 0x0 DUP2 MSTORE SUB ADD SWAP1 KECCAK256 ADD SLOAD AND PUSH2 0x12C7 JUMPI PUSH2 0x1242 SWAP3 PUSH1 0x40 MLOAD SWAP2 PUSH2 0x100F DUP4 PUSH2 0x1505 JUMP JUMPDEST PUSH1 0xC4 CALLDATALOAD DUP4 MSTORE PUSH1 0xE4 CALLDATALOAD PUSH1 0x20 DUP5 ADD MSTORE PUSH2 0x104 CALLDATALOAD PUSH1 0x40 DUP5 ADD MSTORE PUSH2 0x124 CALLDATALOAD PUSH1 0x60 DUP5 ADD MSTORE PUSH1 0x0 PUSH1 0x80 DUP5 ADD MSTORE PUSH1 0x0 PUSH1 0xA0 DUP5 ADD MSTORE PUSH1 0x0 PUSH1 0xC0 DUP5 ADD MSTORE PUSH1 0x0 PUSH1 0xE0 DUP5 ADD MSTORE PUSH1 0x40 MLOAD SWAP4 PUSH2 0x1057 DUP6 PUSH2 0x1521 JUMP JUMPDEST DUP8 DUP6 MSTORE CALLER PUSH1 0x20 DUP7 ADD MSTORE DUP7 PUSH1 0x40 DUP7 ADD MSTORE PUSH1 0x60 DUP6 ADD MSTORE PUSH1 0x80 DUP5 ADD MSTORE PUSH1 0xA0 DUP4 ADD MSTORE PUSH1 0xA4 CALLDATALOAD PUSH1 0xC0 DUP4 ADD MSTORE PUSH1 0x0 PUSH1 0xE0 DUP4 ADD MSTORE PUSH1 0x0 PUSH2 0x100 DUP4 ADD MSTORE PUSH1 0x32 PUSH2 0x120 DUP4 ADD MSTORE PUSH1 0x40 MLOAD PUSH2 0x10A0 DUP2 PUSH2 0x153D JUMP JUMPDEST PUSH1 0x6 DUP2 MSTORE PUSH6 0x4D454449554D PUSH1 0xD0 SHL PUSH1 0x20 DUP3 ADD MSTORE PUSH2 0x140 DUP4 ADD MSTORE PUSH1 0x40 MLOAD PUSH2 0x10C5 DUP2 PUSH2 0x153D JUMP JUMPDEST PUSH1 0xA DUP2 MSTORE PUSH10 0x1D5B9D995C9A599A5959 PUSH1 0xB2 SHL PUSH1 0x20 DUP3 ADD MSTORE PUSH2 0x160 DUP4 ADD MSTORE PUSH2 0x180 DUP3 ADD MSTORE PUSH1 0x1 PUSH2 0x1A0 DUP3 ADD MSTORE PUSH1 0x14 PUSH2 0x1A0 PUSH1 0x40 MLOAD PUSH1 0x20 DUP2 DUP9 MLOAD PUSH2 0x110A DUP2 DUP4 DUP6 DUP14 ADD PUSH2 0x15CF JUMP JUMPDEST DUP2 ADD PUSH1 0x0 DUP2 MSTORE SUB ADD SWAP1 KECCAK256 SWAP3 PUSH2 0x1120 DUP2 MLOAD DUP6 PUSH2 0x1836 JUMP JUMPDEST PUSH1 0x1 DUP5 ADD PUSH1 0x1 DUP1 PUSH1 0xA0 SHL SUB PUSH1 0x20 DUP4 ADD MLOAD AND PUSH12 0xFFFFFFFFFFFFFFFFFFFFFFFF PUSH1 0xA0 SHL DUP3 SLOAD AND OR SWAP1 SSTORE PUSH2 0x1158 PUSH1 0x40 DUP3 ADD MLOAD PUSH1 0x2 DUP7 ADD PUSH2 0x1836 JUMP JUMPDEST PUSH2 0x1169 PUSH1 0x60 DUP3 ADD MLOAD PUSH1 0x3 DUP7 ADD PUSH2 0x1836 JUMP JUMPDEST PUSH2 0x117A PUSH1 0x80 DUP3 ADD MLOAD PUSH1 0x4 DUP7 ADD PUSH2 0x1836 JUMP JUMPDEST PUSH2 0x118B PUSH1 0xA0 DUP3 ADD MLOAD PUSH1 0x5 DUP7 ADD PUSH2 0x1836 JUMP JUMPDEST PUSH1 0xC0 DUP2 ADD MLOAD PUSH1 0x6 DUP6 ADD SSTORE PUSH1 0xE0 DUP2 ADD MLOAD PUSH1 0x7 DUP6 ADD SSTORE PUSH2 0x100 DUP2 ADD MLOAD PUSH1 0x8 DUP6 ADD SSTORE PUSH2 0x120 DUP2 ADD MLOAD PUSH1 0x9 DUP6 ADD SSTORE PUSH2 0x11C7 PUSH2 0x140 DUP3 ADD MLOAD PUSH1 0xA DUP7 ADD PUSH2 0x1836 JUMP JUMPDEST PUSH2 0x11D9 PUSH2 0x160 DUP3 ADD MLOAD PUSH1 0xB DUP7 ADD PUSH2 0x1836 JUMP JUMPDEST PUSH1 0xE0 PUSH2 0x180 DUP3 ADD MLOAD DUP1 MLOAD PUSH1 0xC DUP8 ADD SSTORE PUSH1 0x20 DUP2 ADD MLOAD PUSH1 0xD DUP8 ADD SSTORE PUSH1 0x40 DUP2 ADD MLOAD PUSH1 0xE DUP8 ADD SSTORE PUSH1 0x60 DUP2 ADD MLOAD PUSH1 0xF DUP8 ADD SSTORE PUSH1 0x80 DUP2 ADD MLOAD PUSH1 0x10 DUP8 ADD SSTORE PUSH1 0xA0 DUP2 ADD MLOAD PUSH1 0x11 DUP8 ADD SSTORE PUSH1 0xC0 DUP2 ADD MLOAD PUSH1 0x12 DUP8 ADD SSTORE ADD MLOAD PUSH1 0x13 DUP6 ADD SSTORE ADD MLOAD ISZERO ISZERO SWAP2 ADD SWAP1 PUSH1 0xFF DUP1 NOT DUP4 SLOAD AND SWAP2 ISZERO ISZERO AND OR SWAP1 SSTORE JUMP JUMPDEST PUSH1 0x3 SLOAD PUSH1 0x1 PUSH1 0x40 SHL DUP2 LT ISZERO PUSH2 0x961 JUMPI DUP1 PUSH1 0x1 PUSH2 0x1261 SWAP3 ADD PUSH1 0x3 SSTORE PUSH2 0x17A5 JUMP JUMPDEST SWAP3 SWAP1 SWAP3 PUSH2 0x478 JUMPI PUSH2 0x12BC PUSH2 0x12AE SWAP3 PUSH2 0x129A DUP4 PUSH32 0xACFDBFADB5EFACEE63D45B33A482A91A6BA525814EFE023D86C68E2EAF0A161F SWAP7 PUSH2 0x1836 JUMP JUMPDEST PUSH1 0x40 MLOAD SWAP4 DUP5 SWAP4 PUSH1 0x60 DUP6 MSTORE PUSH1 0x60 DUP6 ADD SWAP1 PUSH2 0x15F2 JUMP JUMPDEST SWAP1 DUP4 DUP3 SUB PUSH1 0x20 DUP6 ADD MSTORE PUSH2 0x15F2 JUMP JUMPDEST CALLER PUSH1 0x40 DUP4 ADD MSTORE SUB SWAP1 LOG1 STOP JUMPDEST PUSH1 0x40 MLOAD PUSH3 0x461BCD PUSH1 0xE5 SHL DUP2 MSTORE PUSH1 0x20 PUSH1 0x4 DUP3 ADD MSTORE PUSH1 0x16 PUSH1 0x24 DUP3 ADD MSTORE PUSH22 0x5374617274757020616C726561647920657869737473 PUSH1 0x50 SHL PUSH1 0x44 DUP3 ADD MSTORE PUSH1 0x64 SWAP1 REVERT JUMPDEST CALLVALUE PUSH2 0x22F JUMPI PUSH1 0x20 DUP1 PUSH1 0x3 NOT CALLDATASIZE ADD SLT PUSH2 0x22F JUMPI PUSH1 0x4 CALLDATALOAD PUSH1 0x1 PUSH1 0x1 PUSH1 0x40 SHL SUB DUP2 GT PUSH2 0x22F JUMPI PUSH2 0x1336 SWAP1 CALLDATASIZE SWAP1 PUSH1 0x4 ADD PUSH2 0x1579 JUMP JUMPDEST SWAP1 DUP1 PUSH2 0x134B PUSH1 0x40 MLOAD SWAP4 DUP5 DUP2 MLOAD SWAP4 DUP5 SWAP3 ADD PUSH2 0x15CF JUMP JUMPDEST DUP3 ADD SWAP2 DUP2 DUP2 PUSH1 0x2 SWAP5 DUP6 DUP2 MSTORE SUB ADD SWAP1 KECCAK256 DUP1 SLOAD PUSH2 0x1365 DUP2 PUSH2 0x1985 JUMP JUMPDEST SWAP4 PUSH2 0x1373 PUSH1 0x40 MLOAD SWAP6 DUP7 PUSH2 0x1558 JUMP JUMPDEST DUP2 DUP6 MSTORE PUSH1 0x0 SWAP3 DUP4 MSTORE DUP4 DUP4 KECCAK256 DUP5 DUP7 ADD SWAP4 SWAP2 DUP5 JUMPDEST DUP5 DUP5 LT PUSH2 0x146E JUMPI PUSH1 0x40 DUP1 MLOAD DUP9 DUP2 MSTORE DUP10 MLOAD DUP2 DUP11 ADD DUP2 SWAP1 MSTORE PUSH1 0x0 SWAP3 PUSH1 0x5 DUP3 SWAP1 SHL DUP4 ADD DUP2 ADD SWAP2 DUP11 SWAP2 DUP13 SWAP1 DUP6 ADD JUMPDEST DUP3 DUP8 LT PUSH2 0x13BC JUMPI DUP6 DUP6 SUB DUP7 RETURN JUMPDEST SWAP1 SWAP2 SWAP3 SWAP4 DUP3 DUP1 PUSH2 0x145E PUSH1 0x1 SWAP4 PUSH1 0x3F NOT DUP11 DUP3 SUB ADD DUP7 MSTORE DUP9 MLOAD SWAP1 PUSH1 0xE0 PUSH2 0x144D PUSH2 0x143A PUSH2 0x1413 PUSH2 0x13F2 DUP7 MLOAD PUSH2 0x100 DUP1 DUP9 MSTORE DUP8 ADD SWAP1 PUSH2 0x15F2 JUMP JUMPDEST DUP11 DUP1 PUSH1 0xA0 SHL SUB DUP10 DUP9 ADD MLOAD AND DUP10 DUP8 ADD MSTORE PUSH1 0x40 DUP8 ADD MLOAD DUP7 DUP3 SUB PUSH1 0x40 DUP9 ADD MSTORE PUSH2 0x15F2 JUMP JUMPDEST PUSH1 0x60 DUP1 DUP8 ADD MLOAD SWAP1 DUP7 ADD MSTORE PUSH1 0x80 DUP1 DUP8 ADD MLOAD SWAP1 DUP7 ADD MSTORE PUSH1 0xA0 DUP1 DUP8 ADD MLOAD SWAP1 DUP7 DUP4 SUB SWAP1 DUP8 ADD MSTORE PUSH2 0x15F2 JUMP JUMPDEST PUSH1 0xC0 DUP1 DUP7 ADD MLOAD SWAP1 DUP6 DUP4 SUB SWAP1 DUP7 ADD MSTORE PUSH2 0x15F2 JUMP JUMPDEST SWAP3 ADD MLOAD SWAP1 PUSH1 0xE0 DUP2 DUP5 SUB SWAP2 ADD MSTORE PUSH2 0x15F2 JUMP JUMPDEST SWAP7 ADD SWAP3 ADD SWAP7 ADD SWAP6 SWAP3 SWAP2 SWAP1 SWAP3 PUSH2 0x13AF JUMP JUMPDEST PUSH1 0x8 DUP8 PUSH1 0x1 SWAP3 PUSH1 0x40 SWAP11 SWAP10 SWAP11 MLOAD PUSH2 0x1483 DUP2 PUSH2 0x1505 JUMP JUMPDEST PUSH2 0x148C DUP8 PUSH2 0x16FF JUMP JUMPDEST DUP2 MSTORE DUP5 DUP1 PUSH1 0xA0 SHL SUB DUP6 DUP9 ADD SLOAD AND DUP4 DUP3 ADD MSTORE PUSH2 0x14A8 DUP7 DUP9 ADD PUSH2 0x16FF JUMP JUMPDEST PUSH1 0x40 DUP3 ADD MSTORE PUSH1 0x3 DUP8 ADD SLOAD PUSH1 0x60 DUP3 ADD MSTORE PUSH1 0x4 DUP8 ADD SLOAD PUSH1 0x80 DUP3 ADD MSTORE PUSH2 0x14CD PUSH1 0x5 DUP9 ADD PUSH2 0x16FF JUMP JUMPDEST PUSH1 0xA0 DUP3 ADD MSTORE PUSH2 0x14DE PUSH1 0x6 DUP9 ADD PUSH2 0x16FF JUMP JUMPDEST PUSH1 0xC0 DUP3 ADD MSTORE PUSH2 0x14EF PUSH1 0x7 DUP9 ADD PUSH2 0x16FF JUMP JUMPDEST PUSH1 0xE0 DUP3 ADD MSTORE DUP2 MSTORE ADD SWAP4 ADD SWAP4 ADD SWAP3 SWAP2 SWAP7 SWAP6 SWAP7 PUSH2 0x1385 JUMP JUMPDEST PUSH2 0x100 DUP2 ADD SWAP1 DUP2 LT PUSH1 0x1 PUSH1 0x1 PUSH1 0x40 SHL SUB DUP3 GT OR PUSH2 0x961 JUMPI PUSH1 0x40 MSTORE JUMP JUMPDEST PUSH2 0x1C0 DUP2 ADD SWAP1 DUP2 LT PUSH1 0x1 PUSH1 0x1 PUSH1 0x40 SHL SUB DUP3 GT OR PUSH2 0x961 JUMPI PUSH1 0x40 MSTORE JUMP JUMPDEST PUSH1 0x40 DUP2 ADD SWAP1 DUP2 LT PUSH1 0x1 PUSH1 0x1 PUSH1 0x40 SHL SUB DUP3 GT OR PUSH2 0x961 JUMPI PUSH1 0x40 MSTORE JUMP JUMPDEST SWAP1 PUSH1 0x1F DUP1 NOT SWAP2 ADD AND DUP2 ADD SWAP1 DUP2 LT PUSH1 0x1 PUSH1 0x1 PUSH1 0x40 SHL SUB DUP3 GT OR PUSH2 0x961 JUMPI PUSH1 0x40 MSTORE JUMP JUMPDEST DUP2 PUSH1 0x1F DUP3 ADD SLT ISZERO PUSH2 0x22F JUMPI DUP1 CALLDATALOAD SWAP1 PUSH1 0x1 PUSH1 0x1 PUSH1 0x40 SHL SUB DUP3 GT PUSH2 0x961 JUMPI PUSH1 0x40 MLOAD SWAP3 PUSH2 0x15AD PUSH1 0x1F DUP5 ADD PUSH1 0x1F NOT AND PUSH1 0x20 ADD DUP6 PUSH2 0x1558 JUMP JUMPDEST DUP3 DUP5 MSTORE PUSH1 0x20 DUP4 DUP4 ADD ADD GT PUSH2 0x22F JUMPI DUP2 PUSH1 0x0 SWAP3 PUSH1 0x20 DUP1 SWAP4 ADD DUP4 DUP7 ADD CALLDATACOPY DUP4 ADD ADD MSTORE SWAP1 JUMP JUMPDEST PUSH1 0x0 JUMPDEST DUP4 DUP2 LT PUSH2 0x15E2 JUMPI POP POP PUSH1 0x0 SWAP2 ADD MSTORE JUMP JUMPDEST DUP2 DUP2 ADD MLOAD DUP4 DUP3 ADD MSTORE PUSH1 0x20 ADD PUSH2 0x15D2 JUMP JUMPDEST SWAP1 PUSH1 0x20 SWAP2 PUSH2 0x160B DUP2 MLOAD DUP1 SWAP3 DUP2 DUP6 MSTORE DUP6 DUP1 DUP7 ADD SWAP2 ADD PUSH2 0x15CF JUMP JUMPDEST PUSH1 0x1F ADD PUSH1 0x1F NOT AND ADD ADD SWAP1 JUMP JUMPDEST PUSH1 0xE0 DUP1 SWAP2 DUP1 MLOAD DUP5 MSTORE PUSH1 0x20 DUP2 ADD MLOAD PUSH1 0x20 DUP6 ADD MSTORE PUSH1 0x40 DUP2 ADD MLOAD PUSH1 0x40 DUP6 ADD MSTORE PUSH1 0x60 DUP2 ADD MLOAD PUSH1 0x60 DUP6 ADD MSTORE PUSH1 0x80 DUP2 ADD MLOAD PUSH1 0x80 DUP6 ADD MSTORE PUSH1 0xA0 DUP2 ADD MLOAD PUSH1 0xA0 DUP6 ADD MSTORE PUSH1 0xC0 DUP2 ADD MLOAD PUSH1 0xC0 DUP6 ADD MSTORE ADD MLOAD SWAP2 ADD MSTORE JUMP JUMPDEST PUSH1 0x40 PUSH1 0x3 NOT DUP3 ADD SLT PUSH2 0x22F JUMPI PUSH1 0x4 CALLDATALOAD SWAP1 PUSH1 0x1 PUSH1 0x1 PUSH1 0x40 SHL SUB DUP3 GT PUSH2 0x22F JUMPI PUSH2 0x168C SWAP2 PUSH1 0x4 ADD PUSH2 0x1579 JUMP JUMPDEST SWAP1 PUSH1 0x24 CALLDATALOAD SWAP1 JUMP JUMPDEST DUP1 SLOAD DUP3 LT ISZERO PUSH2 0x16AF JUMPI PUSH1 0x0 MSTORE PUSH1 0x20 PUSH1 0x0 KECCAK256 SWAP1 PUSH1 0x3 SHL ADD SWAP1 PUSH1 0x0 SWAP1 JUMP JUMPDEST PUSH4 0x4E487B71 PUSH1 0xE0 SHL PUSH1 0x0 MSTORE PUSH1 0x32 PUSH1 0x4 MSTORE PUSH1 0x24 PUSH1 0x0 REVERT JUMPDEST SWAP1 PUSH1 0x1 DUP3 DUP2 SHR SWAP3 AND DUP1 ISZERO PUSH2 0x16F5 JUMPI JUMPDEST PUSH1 0x20 DUP4 LT EQ PUSH2 0x16DF JUMPI JUMP JUMPDEST PUSH4 0x4E487B71 PUSH1 0xE0 SHL PUSH1 0x0 MSTORE PUSH1 0x22 PUSH1 0x4 MSTORE PUSH1 0x24 PUSH1 0x0 REVERT JUMPDEST SWAP2 PUSH1 0x7F AND SWAP2 PUSH2 0x16D4 JUMP JUMPDEST SWAP1 PUSH1 0x40 MLOAD SWAP2 DUP3 PUSH1 0x0 DUP3 SLOAD SWAP3 PUSH2 0x1713 DUP5 PUSH2 0x16C5 JUMP JUMPDEST SWAP1 DUP2 DUP5 MSTORE PUSH1 0x1 SWAP5 DUP6 DUP2 AND SWAP1 DUP2 PUSH1 0x0 EQ PUSH2 0x1782 JUMPI POP PUSH1 0x1 EQ PUSH2 0x173F JUMPI JUMPDEST POP POP PUSH2 0x173D SWAP3 POP SUB DUP4 PUSH2 0x1558 JUMP JUMPDEST JUMP JUMPDEST SWAP1 SWAP4 SWAP2 POP PUSH1 0x0 MSTORE PUSH1 0x20 SWAP1 DUP2 PUSH1 0x0 KECCAK256 SWAP4 PUSH1 0x0 SWAP2 JUMPDEST DUP2 DUP4 LT PUSH2 0x176A JUMPI POP POP PUSH2 0x173D SWAP4 POP DUP3 ADD ADD CODESIZE DUP1 PUSH2 0x172F JUMP JUMPDEST DUP6 SLOAD DUP9 DUP5 ADD DUP6 ADD MSTORE SWAP5 DUP6 ADD SWAP5 DUP8 SWAP5 POP SWAP2 DUP4 ADD SWAP2 PUSH2 0x1752 JUMP JUMPDEST SWAP2 POP POP PUSH2 0x173D SWAP5 POP PUSH1 0x20 SWAP3 POP PUSH1 0xFF NOT AND DUP3 DUP5 ADD MSTORE ISZERO ISZERO PUSH1 0x5 SHL DUP3 ADD ADD CODESIZE DUP1 PUSH2 0x172F JUMP JUMPDEST PUSH1 0x3 SLOAD DUP2 LT ISZERO PUSH2 0x16AF JUMPI PUSH1 0x3 PUSH1 0x0 MSTORE PUSH32 0xC2575A0E9E593C00F959F8C92F12DB2869C3395A3B0502D05E2516446F71F85B ADD SWAP1 PUSH1 0x0 SWAP1 JUMP JUMPDEST SWAP1 PUSH1 0x40 MLOAD PUSH2 0x17E9 DUP2 PUSH2 0x1505 JUMP JUMPDEST PUSH1 0xE0 PUSH1 0x7 DUP3 SWAP5 DUP1 SLOAD DUP5 MSTORE PUSH1 0x1 DUP2 ADD SLOAD PUSH1 0x20 DUP6 ADD MSTORE PUSH1 0x2 DUP2 ADD SLOAD PUSH1 0x40 DUP6 ADD MSTORE PUSH1 0x3 DUP2 ADD SLOAD PUSH1 0x60 DUP6 ADD MSTORE PUSH1 0x4 DUP2 ADD SLOAD PUSH1 0x80 DUP6 ADD MSTORE PUSH1 0x5 DUP2 ADD SLOAD PUSH1 0xA0 DUP6 ADD MSTORE PUSH1 0x6 DUP2 ADD SLOAD PUSH1 0xC0 DUP6 ADD MSTORE ADD SLOAD SWAP2 ADD MSTORE JUMP JUMPDEST SWAP2 SWAP1 SWAP2 DUP3 MLOAD PUSH1 0x1 PUSH1 0x1 PUSH1 0x40 SHL SUB DUP2 GT PUSH2 0x961 JUMPI PUSH2 0x1853 DUP3 SLOAD PUSH2 0x16C5 JUMP JUMPDEST PUSH1 0x1F DUP2 GT PUSH2 0x18FD JUMPI JUMPDEST POP PUSH1 0x20 DUP1 PUSH1 0x1F DUP4 GT PUSH1 0x1 EQ PUSH2 0x1899 JUMPI POP DUP2 SWAP3 SWAP4 SWAP5 PUSH1 0x0 SWAP3 PUSH2 0x188E JUMPI JUMPDEST POP POP DUP2 PUSH1 0x1 SHL SWAP2 PUSH1 0x0 NOT SWAP1 PUSH1 0x3 SHL SHR NOT AND OR SWAP1 SSTORE JUMP JUMPDEST ADD MLOAD SWAP1 POP CODESIZE DUP1 PUSH2 0x1878 JUMP JUMPDEST SWAP1 PUSH1 0x1F NOT DUP4 AND SWAP6 DUP5 PUSH1 0x0 MSTORE DUP3 PUSH1 0x0 KECCAK256 SWAP3 PUSH1 0x0 SWAP1 JUMPDEST DUP9 DUP3 LT PUSH2 0x18E5 JUMPI POP POP DUP4 PUSH1 0x1 SWAP6 SWAP7 SWAP8 LT PUSH2 0x18CC JUMPI JUMPDEST POP POP POP DUP2 SHL ADD SWAP1 SSTORE JUMP JUMPDEST ADD MLOAD PUSH1 0x0 NOT PUSH1 0xF8 DUP5 PUSH1 0x3 SHL AND SHR NOT AND SWAP1 SSTORE CODESIZE DUP1 DUP1 PUSH2 0x18C2 JUMP JUMPDEST DUP1 PUSH1 0x1 DUP6 SWAP7 DUP3 SWAP5 SWAP7 DUP7 ADD MLOAD DUP2 SSTORE ADD SWAP6 ADD SWAP4 ADD SWAP1 PUSH2 0x18AD JUMP JUMPDEST PUSH1 0x0 DUP4 DUP2 MSTORE PUSH1 0x20 DUP2 KECCAK256 PUSH1 0x1F DUP5 ADD PUSH1 0x5 SHR DUP2 ADD SWAP3 PUSH1 0x20 DUP6 LT PUSH2 0x193B JUMPI JUMPDEST PUSH1 0x1F ADD PUSH1 0x5 SHR ADD SWAP2 JUMPDEST DUP3 DUP2 LT PUSH2 0x1930 JUMPI POP POP PUSH2 0x185C JUMP JUMPDEST DUP2 DUP2 SSTORE PUSH1 0x1 ADD PUSH2 0x1922 JUMP JUMPDEST SWAP1 SWAP3 POP DUP3 SWAP1 PUSH2 0x1919 JUMP JUMPDEST ISZERO PUSH2 0x194C JUMPI JUMP JUMPDEST PUSH1 0x40 MLOAD PUSH3 0x461BCD PUSH1 0xE5 SHL DUP2 MSTORE PUSH1 0x20 PUSH1 0x4 DUP3 ADD MSTORE PUSH1 0x11 PUSH1 0x24 DUP3 ADD MSTORE PUSH17 0x14DD185C9D1D5C081B9BDD08199BDD5B99 PUSH1 0x7A SHL PUSH1 0x44 DUP3 ADD MSTORE PUSH1 0x64 SWAP1 REVERT JUMPDEST PUSH1 0x1 PUSH1 0x1 PUSH1 0x40 SHL SUB DUP2 GT PUSH2 0x961 JUMPI PUSH1 0x5 SHL PUSH1 0x20 ADD SWAP1 JUMP INVALID LOG2 PUSH5 0x6970667358 0x22 SLT KECCAK256 0xC6 CREATE BLOCKHASH 0xC1 PUSH27 0xB3A4DFB3DDDDD3D08CF79919920DBB5F54C1EABE41073D794BC5D3 PUSH5 0x736F6C6343 STOP ADDMOD EQ STOP CALLER "},"methodIdentifiers":{"addMilestone(string,string,string,uint256)":"5d04acde","createStartup(string,string,string,string,string,uint256,uint256,uint256,uint256,uint256)":"125ce426","getInvestments(string)":"0b1b74ed","getMilestones(string)":"f4b994d6","getStartup(string)":"20972301","invest(string,string,uint256,string,string)":"3614ca57","startupIds(uint256)":"c75d7191","startupInvestments(string,uint256)":"b218a9bf","startupMilestones(string,uint256)":"73851251","startups(string)":"f86025c3","updateTrustScore(string,uint256,string)":"b49b693a"}}}}}